:1000000071C0000090C000008EC000008CC00000D5
:100010008AC0000088C0000086C0000084C00000C4
:1000200082C0000080C000007EC000007CC00000D4
:100030007AC0000078C0000076C0000074C00000E4
:1000400072C0000013C600006EC000006CC000004B
:100050006AC0000068C0000066C0000064C0000004
:1000600062C0000060C000005EC000005CC0000014
:100070005AC0000058C0000056C0000054C0000024
:1000800052C0000050C000004EC000004CC0000034
:100090004AC0000048C0000046C0000044C0000044
:1000A00042C0000040C000003EC000003CC0000054
:1000B0003AC0000038C0000036C0000034C0000064
:1000C00032C0000030C000002EC000002CC0000074
:1000D0002AC0000028C0000026C0000024C0000084
:1000E00022C0000011241FBECFEFD1E2DEBFCDBF82
:1000F00000E00CBF18E1A0E0B2E0E6EBF3E200E0C4
:100100000BBF02C007900D92AE38B107D9F729E1B5
:10011000AEE8B8E101C01D92AC3BB207E1F70E9426
:100120002F0E0C94D9116CCF0F931F93CF93DF93A5
:100130008C01FC0101900020E9F7CF01801B910B9D
:1001400004960E945010EC01B8010E949D11FE011E
:1001500001900020E9F731978DE09AE09183808348
:100160001282CE010E94CE0FCE010E94E810DF91D4
:10017000CF911F910F9108951092BD181092BC1845
:100180002FEF83ED90E3215080409040E1F700C0D5
:10019000000082E192E0C8DF2FEF83ED90E3215071
:1001A00080409040E1F700C000008AE192E0BCDFAF
:1001B0002FEF83ED90E3215080409040E1F700C0A5
:1001C000000083E292E0B0DF2FEF83ED90E3215057
:1001D00080409040E1F700C000008DE292E0A4DF93
:1001E0002FEF8DE399E4215080409040E1F700C06B
:1001F000000085E392E098DF2FEF8DE399E4215032
:1002000080409040E1F700C0000008952F923F9297
:100210004F925F926F927F928F929F92AF92BF9216
:10022000CF92DF92EF92FF920F931F93CF93DF93C2
:10023000CDB7DEB72C970FB6F894DEBF0FBECDBF9B
:100240008C0185E090E00E9450107C0183E090E0FA
:100250000E9450106C0183E090E00E9450101C013D
:10026000F80133979801275D3E4F81918B3291F4CD
:100270008081893479F481818E3461F48281813581
:1002800049F48091AC189091AD1801969093AD18F7
:100290008093AC18E217F30741F7AE014F5F5F4F51
:1002A0006DE073E0C8010E94B2118091AC1890918A
:1002B000AD18181619060CF09DC0CE0103969C8748
:1002C0008B87A12CB12C0F2EFCE24F2E512CF02D40
:1002D00015C01A141B0494F4AE014F5F5F4F63E422
:1002E00072E080E090E00E94B211AE014F5F5F4F7C
:1002F0006DE073E080E090E00E94B211AE014F5FCC
:100300005F4F6DE073E080E090E00E94B2114C011D
:10031000F10193838283AE014F5F5F4F6DE073E025
:1003200080E090E00E94B2118C01F10195838483FA
:10033000AE014F5F5F4F63E472E080E090E00E94A7
:10034000B2113C01F10197838683B401C7010E9479
:100350009D11F70101900020E9F731975182408209
:10036000B801C6010E949D11F60101900020E9F735
:10037000319751824082F70101900020E9F73197CF
:10038000CF018E199F09F60101900020E9F73197FE
:10039000EC19FD098E0F9F1F01960E9450108C01D1
:1003A000B7010E949D11B601C8010E948911F80190
:1003B00001900020E9F7CF01801B910B06960E9467
:1003C00050104C01B8010E949D11B301C4010E945C
:1003D0008911EB85FC8581929192FC87EB87FFEF79
:1003E000AF1ABF0A8091AC189091AD18A816B90643
:1003F0000CF46FCF8091BC189091BD18823091059C
:10040000B1F12CF4009759F00197E1F078C08330F6
:10041000910509F443C0049709F459C070C085E4FC
:1004200092E09093A9188093A8189093B3188093A2
:10043000B2189093B1188093B0189093BB18809322
:10044000BA185DC08B819C819093A9188093A818DD
:1004500085E492E09093B3188093B2189093B1180A
:100460008093B0189093BB188093BA1848C08B81C2
:100470009C819093A9188093A8188D819E81909358
:10048000B3188093B21885E492E09093B1188093EA
:10049000B0189093BB188093BA1831C08B819C819F
:1004A0009093A9188093A8188D819E819093B3187A
:1004B0008093B2188F8198859093B1188093B0186B
:1004C00085E492E09093BB188093BA1818C08B8192
:1004D0009C819093A9188093A8188D819E819093F8
:1004E000B3188093B2188F8198859093B118809338
:1004F000B01889859A859093BB188093BA182C966A
:100500000FB6F894DEBF0FBECDBFDF91CF911F9124
:100510000F91FF90EF90DF90CF90BF90AF909F90A2
:100520008F907F906F905F904F903F902F900895A5
:10053000EF92FF920F931F93CF93DF93CDB7DEB768
:10054000CC52D1400FB6F894DEBF0FBECDBF109293
:10055000AD181092AC1889E492E0E6DD8E010150EE
:1005600011097E0185EDE81A8EEFF80A0E94BE0F90
:10057000F801828390810F5F1F4F9F3431F4D801BF
:100580009C919B3411F48D3019F00E151F0571F7F5
:10059000CE0101963BDE87E892E0C6DD80E592E081
:1005A0000E94CE0F8091A8189091A918BDDD8BE50F
:1005B00092E00E94CE0F8091B2189091B318B4DDF2
:1005C00086E692E00E94CE0F8091B0189091B1180B
:1005D000ABDD81E792E00E94CE0F8091BA18909136
:1005E000BB18A2DDC45DDE4F0FB6F894DEBF0FBEB0
:1005F000CDBFDF91CF911F910F91FF90EF900895A4
:100600002F923F924F925F926F927F928F929F9222
:10061000AF92BF92CF92DF92EF92FF920F931F9310
:10062000CF93DF93CDB7DEB72C970FB6F894DEBF2C
:100630000FBECDBF8C01FC0133979C01275D3E4F5F
:1006400081918B3291F48081893479F481818E3467
:1006500061F48281813549F48091BC189091BD1874
:1006600001969093BD188093BC18E217F30741F7E9
:1006700085E090E00E9450107C0183E090E00E94B1
:1006800050106C01AE014F5F5F4F6DE073E0C80129
:100690000E94B21183E090E00E9450101C018091F2
:1006A000BC189091BD18181619060CF09DC0CE010B
:1006B00003969C878B87A12CB12C0F2EFCE24F2E2A
:1006C000512CF02D15C01A141B0494F4AE014F5F89
:1006D0005F4F63E472E080E090E00E94B211AE01EF
:1006E0004F5F5F4F6DE073E080E090E00E94B211D9
:1006F000AE014F5F5F4F6DE073E080E090E00E94DD
:10070000B2114C01F10193838283AE014F5F5F4FC1
:100710006DE073E080E090E00E94B2118C01F10185
:1007200095838483AE014F5F5F4F63E472E080E0A6
:1007300090E00E94B2113C01F10197838683B401DD
:10074000C7010E949D11F70101900020E9F7319740
:1007500051824082B801C6010E949D11F6010190AC
:100760000020E9F7319751824082F7010190002083
:10077000E9F73197CF018E199F09F601019000200A
:10078000E9F73197EC19FD098E0F9F1F01960E9422
:1007900050108C01B7010E949D11B601C8010E9442
:1007A0008911F80101900020E9F7CF01801B910B1E
:1007B00006960E9450104C01B8010E949D11B30191
:1007C000C4010E948911EB85FC8581929192FC877E
:1007D000EB87FFEFAF1ABF0A8091BC189091BD184C
:1007E000A816B9060CF46FCF82309105B1F12CF444
:1007F000009759F00197E1F078C08330910509F432
:1008000043C0049709F459C070C085E492E0909306
:10081000AB188093AA189093BF188093BE1890933A
:10082000AF188093AE189093A7188093A6185DC058
:100830008B819C819093AB188093AA1885E492E0F9
:100840009093BF188093BE189093AF188093AE1802
:100850009093A7188093A61848C08B819C81909391
:10086000AB188093AA188D819E819093BF188093B6
:10087000BE1885E492E09093AF188093AE189093E1
:10088000A7188093A61831C08B819C819093AB18D8
:100890008093AA188D819E819093BF188093BE1873
:1008A0008F8198859093AF188093AE1885E492E07D
:1008B0009093A7188093A61818C08B819C81909361
:1008C000AB188093AA188D819E819093BF18809356
:1008D000BE188F8198859093AF188093AE18898544
:1008E0009A859093A7188093A6182C960FB6F89423
:1008F000DEBF0FBECDBFDF91CF911F910F91FF9053
:10090000EF90DF90CF90BF90AF909F908F907F90AF
:100910006F905F904F903F902F900895CF92DF920D
:10092000EF92FF920F931F93CF93DF93CDB7DEB774
:10093000C255D1090FB6F894DEBF0FBECDBF7C0102
:1009400088E190E00E9450108C018AE0ECE7F2E030
:10095000D80101900D928A95E1F7B701C8010E9474
:1009600089112FEF84E39CE0215080409040E1F713
:1009700000C00000C801D8DB8E010D5F1F4F7E0153
:10098000E3E5EE0EF11CC12CD12C0E94BE0FF80144
:1009900081938F018D3039F4FFEFCF1ADF0A22E007
:1009A000C216D10419F00E151F0579F7AE014F5F7D
:1009B0005F4F6DE073E0CE0103960E94B211AE016D
:1009C0004F5F5F4F66E872E080E090E00E94B211F6
:1009D0000E947111CE5ADF4F0FB6F894DEBF0FBEE2
:1009E000CDBFDF91CF911F910F91FF90EF90DF90DE
:1009F000CF900895EF92FF920F931F93CF93DF93C1
:100A0000CDB7DEB7CC52D1400FB6F894DEBF0FBEE3
:100A1000CDBF1092BD181092BC1889E492E084DB1F
:100A20008E01015011097E0185EDE81A8EEFF80A5A
:100A30000E94BE0FF801828390810F5F1F4F9F3489
:100A400031F4D8019C919B3411F48D3019F00E15BE
:100A50001F0571F7CE010196D3DD0091AA18109100
:100A6000AB1840E051E065E472E0C8010E94A411B7
:100A7000892B39F0C80152DF9093B7188093B618CC
:100A800006C085E492E09093B7188093B618009161
:100A9000BE181091BF1840E051E065E472E0C80153
:100AA0000E94A411892B39F0C80138DF9093B51842
:100AB0008093B41806C085E492E09093B5188093B3
:100AC000B4180091AE181091AF1840E051E065E401
:100AD00072E0C8010E94A411892B39F0C8011EDF01
:100AE0009093A5188093A41806C085E492E0909393
:100AF000A5188093A4180091A6181091A71840E09B
:100B000051E065E472E0C8010E94A411892B39F01C
:100B1000C80104DF9093B9188093B81806C085E423
:100B200092E09093B9188093B81887E892E0FCDAC5
:100B300080E592E00E94CE0F8091B6189091B71890
:100B4000F3DA8BE592E00E94CE0F8091B418909179
:100B5000B518EADA86E692E00E94CE0F8091A418DA
:100B60009091A518E1DA81E792E00E94CE0F809182
:100B7000B8189091B918D8DAC45DDE4F0FB6F89462
:100B8000DEBF0FBECDBFDF91CF911F910F91FF90C0
:100B9000EF9008958230910579F01CF4019739F0B7
:100BA0001AC08330910569F0049781F014C08091D8
:100BB000B6189091B71808958091B4189091B5180F
:100BC00008958091A4189091A51808958091B8185F
:100BD0009091B918089588E892E0089582309105BF
:100BE00079F01CF4019739F01AC08330910569F04F
:100BF000049781F014C08091AA189091AB180895C1
:100C00008091BE189091BF1808958091AE18909170
:100C1000AF1808958091A6189091A718089588E8B4
:100C200092E008958230910579F01CF4019739F033
:100C30001AC08330910569F0049781F014C0809147
:100C4000A8189091A91808958091B2189091B3189E
:100C500008958091B0189091B11808958091BA18B4
:100C60009091BB18089588E892E008951F920F9222
:100C70000FB60F9211248F939F93AF93BF938091E0
:100C8000C0189091C118A091C218B091C3180196D4
:100C9000A11DB11D8093C0189093C118A093C218D4
:100CA000B093C318BF91AF919F918F910F900FBEDA
:100CB0000F901F901895EF920F93CF9380919218F9
:100CC00090919318181619060CF03EC0CEE1C89FFB
:100CD000A001C99F500D1124809108029091090232
:100CE000480F591F60910A0270910B0264517109FB
:100CF0000F2EFFE1EF2EF02D0FE32FE183E992E0BD
:100D000035D78091921890919318019790939318EA
:100D100080939218C89FA001C99F500D1124809103
:100D2000080290910902480F591F60910A027091C0
:100D30000B0264517109E12C00E020E083E992E0AC
:100D400015D781E090E002C080E090E0CF910F9154
:100D5000EF900895EF920F93CF93209192183091D6
:100D6000931880919018909191180197281739073E
:100D70000CF03EC0CEE1C29FA001C39F500D1124D4
:100D80008091080290910902480F591F60910A0250
:100D900070910B02645171090F2EFFE1EF2EF02DBF
:100DA0000FE32FE183E992E0E1D6809192189091D0
:100DB000931801969093931880939218C89FA0015E
:100DC000C99F500D11248091080290910902480F8B
:100DD000591F60910A0270910B0264517109E12C54
:100DE00000E020E083E992E0C1D681E090E002C01B
:100DF00080E090E0CF910F91EF900895EF920F93E4
:100E0000409108025091090260910A0270910B0210
:100E100064517109E12C00E020E083E992E0A6D65C
:100E20000F91EF900895CF92EF920F938091060269
:100E3000909107028130910581F4C12C0F2EFFE3C0
:100E4000EF2EF02D00E02CE330E04CE350E060E0CA
:100E500070E085E091E0C1D40EC0892B61F4C12C13
:100E6000E12C0FE12CE330E04CE350E060E070E077
:100E700085E091E0B2D40F91EF90CF9008958091EA
:100E800006029091070201968330910529F0909314
:100E900007028093060204C0109207021092060215
:100EA000C2CF0895EF920F9340E050E060E070E011
:100EB00080E090E0D0D40F2EFFE1EF2EF02D0FE375
:100EC0002FE148EC50E06FE070E085E992E04ED60B
:100ED0002FE148EC50E06AE570E08BE992E046D6FD
:100EE0002FE148EC50E069EB70E080EA92E03ED6FA
:100EF0002FE148EC50E066EE70E083EA92E036D6EF
:100F00004FE150E06FE370E08FE190E0A4D40F91E7
:100F1000EF900895CF92EF920F930F2EFFE1CF2E17
:100F2000F02D0F2EFFE3EF2EF02D0FE120EF30E03C
:100F300040E451E060E070E080E090E04ED40F913A
:100F4000EF90CF900895AF92BF92CF92DF92EF9241
:100F5000FF920F931F93CF93DF935C016C0181E0AD
:100F6000C81AD1086130710509F03EC0C0918E18D1
:100F7000D0918F188601000F111FF801E656F74E29
:100F80006F016081718188E28C9F70018D9FF00CF0
:100F90001124C7018853974E0E949D11F801EC5609
:100FA000F74E60817181C701805C964E0E949D1151
:100FB0002196D0938F18C0938E18ACDFE12C00E0FF
:100FC00020E044E650E062E370E088EA92E0CED5AB
:100FD00020E04CE850E062E370E0F601808191810E
:100FE000C5D581E090E05CC06230710509F055C064
:100FF00080918E1890918F18181619060CF04EC01B
:1010000089DFE12C00E020E044E650E062E370E09C
:1010100084EB92E0ABD528E22C9DC0012D9D900D74
:10102000112420E04CE850E062E370E08853974ED2
:101030009DD5E0908E18F0908F1886010E0D1F1D23
:10104000C016D10604F588E28A9DE0018B9DD00D83
:101050001124CE018853974E5C01C05CD64E9FEFA1
:10106000C91AD90AB501C50188970E949D11BE0110
:10107000CE0188970E949D11E8E2AE0EB11CA896A1
:10108000C016D10664F3F1E0EF1AF108F0928F1860
:10109000E0928E1881E090E003C002C080E090E012
:1010A000DF91CF911F910F91FF90EF90DF90CF9044
:1010B000BF90AF900895EF920F93809106029091A8
:1010C00007028230910521F54091080250910902F2
:1010D000445C5F4F60910A0270910B020F2EFFE19A
:1010E000EF2EF02D0FE32FE181EC92E03FD5409100
:1010F000080250910902445C5F4F60910A027091AE
:101100000B02E12C00E020E081EC92E02FD549C0F9
:10111000019721F54091080250910902445C5F4F0C
:1011200060910A0270910B020F2EFFE1EF2EF02D5D
:101130000FE32FE181EC92E019D540910802509124
:101140000902445C5F4F60910A0270910B02E12C2E
:1011500000E020E08BEC92E009D523C0409108022A
:1011600050910902445C5F4F60910A0270910B023A
:101170000F2EFFE1EF2EF02D0FE32FE181EC92E037
:10118000F5D44091080250910902445C5F4F609190
:101190000A0270910B02E12C00E020E084ED92E065
:1011A000E5D40F91EF9008958F92AF92CF92DF9296
:1011B000EF92FF920F931F931F92812C0F2EFFE14E
:1011C000AF2EF02DC12CD12C6894EE24E4F8FF242E
:1011D000F3940AE010E02AE030E048E850E064E0F0
:1011E00070E08FE293E044D31F920F2EF6E0CF2EF3
:1011F000D12CF02D0F2EF6E6EF2EF12CF02D2AE259
:1012000030E04AEA50E065E070E08FE293E030D3EE
:101210001F92C12CD12CE12CF12C21E530E046E6C7
:1012200050E063E070E08FE293E022D31F920F2E34
:10123000F8E9EF2EFF24F394F02D23E630E044E8A4
:1012400050E064E070E08FE293E012D31F920F2E23
:10125000F6E0CF2ED12CF02D0F2EF6E6EF2EF12C4E
:10126000F02D26E830E04AEA50E065E070E08FE2D9
:1012700093E0FED20F900F900F900F900F901F9160
:101280000F91FF90EF90DF90CF90AF908F900895E7
:10129000EF920F933FDEE12C00E020E04CE650E0BF
:1012A00064E670E08CED92E061D47EDF0F91EF9008
:1012B0000895EF920F932EDEE12C00E020E04CE643
:1012C00050E064E670E086EE92E050D46DDF0F915E
:1012D000EF9008958F929F92AF92BF92CF92DF923C
:1012E000EF920F931F93CF93DF934C01029709F472
:1012F000AAC083E08816910409F4F5C0E1E08E16D7
:10130000910409F0F3C0C4DF75DB04E918E1C12CD6
:10131000D12CFFEFCF1ADF0AC60160DCEC019093FD
:10132000C7188093C618FC0101900020E9F7CF018F
:101330008C1B9D0BB5D6F801819391938F01BE0153
:10134000FCD7F4E0CF16D10421F70F2EFAE9AF2E27
:10135000F8E1BF2EF02D8501C12CD12C2FEFC21A40
:10136000D20AC60117DCEC019093C5188093C4180B
:10137000FC0101900020E9F7CF018C1B9D0B90D65A
:10138000F801819391938F01BE01D7D7F4E0CF1676
:10139000D10421F7BFDD4091080250910902485263
:1013A000510960910A0270910B0268527109E12C97
:1013B00000E020E08EEE92E0D9D310928F181092C8
:1013C0008E180F2EF0E4CF2EF9E1DF2EF02DC0E0C5
:1013D000D0E065E472E0C601A7D7892BD1F0409137
:1013E0000802509109024C0F5D1F60910A02709132
:1013F0000B02E12C00E020E0F50180819181B6D361
:1014000080918E1890918F18019690938F188093E9
:101410008E18F8E2CF0ED11C6E9622E0A20EB11CFF
:10142000C837D105B1F6EADCFEDC3CDD80918E18D0
:1014300090918F18909391188093901810928F1814
:1014400010928E187FC066DD109293181092921839
:1014500040910802509109024852510960910A02D4
:1014600070910B0268527109E12C00E020E080E0ED
:1014700093E07CD380918E1890918F18909391185F
:1014800080939018181619065CF50F2EF8ECAF2E05
:10149000F8E1BF2EF02DC12CD12CC0E0D0E040915E
:1014A0000802509109024C0D5D1D60910A02709175
:1014B0000B02E12C00E020E0C50158D32196809179
:1014C0008E1890918F18EEE1CE0ED11CF8E2AF0E7F
:1014D000B11CC817D9071CF3181619060CF48EDCBA
:1014E000A2DCE0DC2FC0CBDCE6DD2CC013DD83E02A
:1014F00090E0909391188093901840910802509139
:10150000090260910A0270910B02E12C00E020E0D8
:101510008FE093E02BD34091080250910902425E84
:101520005F4F60910A0270910B0220E08AE193E024
:101530001DD3C1DD63DC77DCB5DC36DE1092931899
:1015400010929218C401DF91CF911F910F91EF90EB
:10155000DF90CF90BF90AF909F908F9008956F9243
:101560007F928F929F92AF92BF92CF92DF92EF9233
:10157000FF920F931F93CF93DF9320910602309138
:1015800007022230310509F07BC0892B09F078C0B1
:101590004091080250910902465A5F4F60910A0239
:1015A00070910B02E12C00E020E088E293E0DED2B3
:1015B0000E9498020F2EF4E9AF2EF8E1BF2EF02D15
:1015C000C12CD12C812C912C0F2EF0EEEF2EF9E1B5
:1015D000FF2EF02D66246394712C8FEFC81AD80A61
:1015E000C60120DBEC019093C7188093C618FC015C
:1015F00001900020E9F7CF018C1B9D0B51D585018F
:10160000F50191838083BE0198D6C0E4D9E1F80149
:1016100060817181CE0188D6892B39F460920602EF
:101620007092070200DC862C972CA896CE15DF0559
:1016300071F7F2E0AF0EB11C84E0C816D10469F670
:10164000892829F41092070210920602ECDB82E04E
:1016500090E0909307028093060240910802509117
:101660000902465A5F4F60910A0270910B020F2ED9
:10167000FFE1EF2EF02D0FE32FE188E293E076D229
:10168000DF91CF911F910F91FF90EF90DF90CF905E
:10169000BF90AF909F908F907F906F90089588B982
:1016A0005F98A198A2980000A29A0000089592B9AC
:1016B00088B95F9AA198A2980000A29A00000895A4
:1016C00089E290E0ECCF089581E190E0E8CF0895C1
:1016D000CF93C82F86E390E0E2DF8C2F90E0E7DF26
:1016E000CF910895CF93C82F8AE390E0D8DF8C2F55
:1016F00090E0DDDFCF91089583B3876083BB579A75
:101700008FEF81B987B984B3876084BB5F9AA09853
:101710002FEF89E698E1215080409040E1F700C02A
:101720000000A09A2FEF88E596E02150804090407D
:10173000E1F700C00000C8DFC3DF88E0C9DF85E053
:10174000D1CF08958CE290E0AACF089590E2699FEE
:10175000B0011124642B90E0982F8827990F990FDE
:10176000990F862B972BA3CF08950F931F93CF9399
:10177000DF93082FD92F162FC72F8AE290E08FDF33
:101780008D2F90E094DF802F9D2F91DF8C2F90E0A4
:101790008EDF812F9C2F8BDFDF91CF911F910F91D7
:1017A00008950F931F93CF93DF93082FD92F162FF0
:1017B000C72F8BE290E073DF8D2F90E078DF802FD2
:1017C0009D2F75DF8C2F90E072DF812F9C2F6FDFB4
:1017D000DF91CF911F910F9108954F925F926F9279
:1017E0007F928F929F92AF92BF92CF92EF920F9380
:1017F0003B014A015901BC01640F751FD2DFB301DF
:101800006A0D7B1DC301B1DF9DDF9401D50103D4B7
:101810002B013C01672B682B692B89F0812C912CC3
:1018200054014C2D6E2D802F91DF8FEF881A980A6E
:10183000A80AB80A84149504A604B70491F70F9176
:10184000EF90CF90BF90AF909F908F907F906F90D0
:101850005F904F90089590931102809310027093BF
:101860000F0260930E0250930D0240930C020895F4
:101870002F923F924F925F926F927F928F929F92A0
:10188000AF92BF92CF92DF92EF92FF920F931F938E
:10189000CF93DF93CDB7DEB764970FB6F894DEBF72
:1018A0000FBECDBF788B6F875E874D873C832B83C0
:1018B00028011601B82C295F3F4F141615060CF0AD
:1018C0007EC0AB01440F551F440F551F440F551FD9
:1018D0006B817C81640F751F7E836D836C01CE0CE0
:1018E000DF1CED85FE85EE0EFF1EAC014E0D5F1D6B
:1018F00058874F8339018B819C816894EE24E7F8E7
:10190000F12C0F2EF0E18F2EF2E09F2EF02D298783
:101910003A875B815B876C816C871A8B098B3C8A69
:101920002B8A5A2C3B2C5801B3013BDFB501C50172
:101930001CDF08DF00E010E04AA4F6018081282FB8
:1019400030E0C701002E02C0959587950A94E2F712
:1019500082239323892B29F0442D632D852DF6DED8
:1019600009C0ECE0F2E04081EEE0F2E06081F401D9
:101970008081ECDE0F5F1F4F08301105F1F69301F7
:10198000285F3F4F4D815E812417350724F4C30142
:101990000196390107C05FEFA51AB50A69847A84F8
:1019A0008B859C856FEFC61AD60AEF81F885CE1617
:1019B000DF0609F0B9CF49885A882B883C888D8585
:1019C0009E856F857889F8D2161617060CF04EC0E2
:1019D0006F847888660C771C660C771C660C771C05
:1019E0009B01240D351D3A8329836894882483F84C
:1019F000912C0F2EFCE0AF2EF2E0BF2EF02D0F2E1B
:101A0000FEE0CF2EF2E0DF2EF02D0F2EF0E1EF2ED4
:101A1000F2E0FF2EF02D2114310409F41401C40169
:101A200082199309A301481B590BCA016B817C8160
:101A3000860F971FBC01695F7F4FB3DEB201C20101
:101A400094DE80DE08E010E0F5014081F60160815F
:101A5000F70180817BDE01501109B1F7FFEF4F1ACA
:101A60005F0A29813A8124153505A9F664960FB6D7
:101A7000F894DEBF0FBECDBFDF91CF911F910F91C4
:101A8000FF90EF90DF90CF90BF90AF909F908F909E
:101A90007F906F905F904F903F902F9008958F921E
:101AA000AF92CF92DF92EF92FF920F931F93CF935B
:101AB000DF93DA013E2D4091A0185091A1184617EE
:101AC000570741F07093A1186093A0187093A31862
:101AD0006093A218880F991FFC01EE0FFF1FEF5AA9
:101AE000FA4FE080F180FC01EE0FFF1FEB5AFA4F36
:101AF000408151814E195F09880F991FFC01E15BFC
:101B0000FA4FC081D181BE0176956795769567952C
:101B1000769567956E0187E0C822DD241C141D04AC
:101B200014F46F5F7F4F8091A2189091A3183F9398
:101B3000802EA22E8D019C0187EC96E099DE80918B
:101B4000A2189091A3180196C80FD91FD093A3187B
:101B5000C093A2180F90DF91CF911F910F91FF902A
:101B6000EF90DF90CF90AF908F9008955F926F923B
:101B70007F928F929F92AF92BF92CF92DF92EF921D
:101B8000FF920F931F93CF93DF93CDB7DEB7E2970A
:101B90000FB6F894DEBF0FBECDBF5B014A01122F16
:101BA000F02E5E2CFE01319622E3DF011D922A9574
:101BB000E9F7FC0120812223C1F1AE014F5F5F4FA5
:101BC0006A013196DA01612C712C30E02D933D933E
:101BD0005FEF651A750A21912111F7CF16141704CA
:101BE00024F5660C771C81E090E08C0F9D1F680E39
:101BF000791ED6018D919D916D0181978F3FBFEF29
:101C00009B0739F0E52C0F2D212FA401B50147DFEB
:101C100009C08091A2189091A3180A969093A318D6
:101C20008093A2186C147D0421F7B092A318A0929F
:101C3000A218E2960FB6F894DEBF0FBECDBFDF91BB
:101C4000CF911F910F91FF90EF90DF90CF90BF90B9
:101C5000AF909F908F907F906F905F9008954CDD34
:101C6000F5D02EDD26DB2FEF83ED90E32150804071
:101C70009040E1F700C000002EE448E060E076E923
:101C800080E090E02ED12FEF89E698E1215080404E
:101C90009040E1F700C000000E94BC002FEF83EDF0
:101CA00090E3215080409040E1F700C0000080E0C8
:101CB00090E010DB00E010E0AA24A394B12CC12C2A
:101CC000D12C81E090E0D3D0EC0182E090E0CFD045
:101CD0007C012FEF81EE94E0215080409040E1F7AD
:101CE00000C000000F5F1F4FCE0183569C40813122
:101CF0009240A8F5C7018D5C91408330914078F502
:101D0000C114D10479F4C501E5DA4C0183E0A816C9
:101D1000B10409F476C0AA24A394B12CCC24C394B2
:101D2000D12C6FC091E0C916D10409F06AC0B4018A
:101D3000C50109D9019709F064C02FEF83ED90E345
:101D4000215080409040E1F700C0000080E090E02A
:101D5000C1DAAA24A394B12CC12CD12C52C0CE013B
:101D6000855D98408334924008F058C0C7018D5C6F
:101D700091408330914008F051C080E090E0AADAB1
:101D8000CE01855096408132914080F0C12CD12CFB
:101D9000AA24A394B12C17C08DECE81A81E0F80AAC
:101DA00093E0E91691E0F90618F505C0AA24A3947A
:101DB000B12CC12CD12C0E945B06019749F521E082
:101DC000A21AB10825C0C95AD240CD34D24080F4FD
:101DD0009DECE91A91E0F90A23E0E21621E0F2060F
:101DE00038F40E94AA06019719F48FEFA81AB80ACE
:101DF0000233110509F065CFC601B1DB00E010E048
:101E000060CFCE01855D98408334924038F4B5CFE1
:101E1000C95AD240CD34D24020F3EACFCE0185500A
:101E200096408132914078F6B7CFE2E0F1E08081D0
:101E30008860808300000000000000008081877FB0
:101E4000808300000000000000000895E1E0F1E060
:101E50008081886080836B9A9D9A6D986C98739A44
:101E6000A59AE2E0F1E080818860808308950F9375
:101E70001F93CF93DF938130910529F0029731F4BE
:101E800000ED10E005C000E910E002C000E010E045
:101E9000739800000000C7E0D0E0C8010C2E02C01B
:101EA000959587950A94E2F780FF02C0A59A01C034
:101EB000A59800000000B9DF219778F70CE010E04A
:101EC000C0E0D0E0CC0FDD1FB0DF65992196015056
:101ED0001109C1F7739ACE01DF91CF911F910F9134
:101EE00008950F931F93522F8B019C010E561109D9
:101EF000210931090339114C21403105E0F54550E4
:101F00004430C8F520E22093C00028E12093C100AE
:101F10002BEF250F220F2093C200553431F4E2EC51
:101F2000F0E020812062208307C05F3429F4E2ECD6
:101F3000F0E0208120632083DC01CB01880F991F12
:101F4000AA1FBB1F880F991FAA1FBB1F9C01AD01B1
:101F5000220F331F441F551F220F331F441F551FCD
:101F600060E074E284EF90E03AD021503109209390
:101F7000C4003093C5001F910F910895E0ECF0E08C
:101F800080818823ECF78091C6000895E0ECF0E0B2
:101F9000908195FFFDCF8093C6000895CF93DF9386
:101FA000EC018881882329F02196F0DF8991811145
:101FB000FCCFDF91CF91089597FB072E16F4009484
:101FC00006D077FD08D036D007FC05D03EF49095BA
:101FD00081959F4F0895709561957F4F0895052EC7
:101FE00097FB16F400940FD057FD05D037D007FCAF
:101FF00002D046F408C050954095309521953F4F4A
:102000004F4F5F4F089590958095709561957F4FE4
:102010008F4F9F4F0895A29FB001B39FC001A39F10
:10202000700D811D1124911DB29F700D811D112411
:10203000911D0895AA1BBB1B51E107C0AA1FBB1F1E
:10204000A617B70710F0A61BB70B881F991F5A9544
:10205000A9F780959095BC01CD010895A1E21A2EB3
:10206000AA1BBB1BFD010DC0AA1FBB1FEE1FFF1F3C
:10207000A217B307E407F50720F0A21BB30BE40B8C
:10208000F50B661F771F881F991F1A9469F76095D3
:102090007095809590959B01AC01BD01CF0108958D
:1020A0000F931F93CF93DF938230910510F482E05A
:1020B00090E0E091BA19F091BB1920E030E0A0E087
:1020C000B0E0309719F140815181028113814817A6
:1020D0005907C8F08417950769F4109731F01296E4
:1020E0000C93129713961C9327C00093BA19109360
:1020F000BB1922C02115310519F04217530718F4F6
:102100009A01BD01EF01DF01F801DBCF2115310597
:10211000F9F0281B390B2430310580F48A819B812A
:102120006115710521F0FB019383828304C09093B4
:10213000BB198093BA19FE01329644C0FE01E20F2A
:10214000F31F8193919322503109398328833AC038
:102150002091B8193091B919232B41F42091020232
:10216000309103023093B9192093B81920910002DD
:10217000309101022115310541F42DB73EB7409150
:10218000040250910502241B350BE091B819F0911F
:10219000B919E217F307A0F42E1B3F0B28173907D4
:1021A00078F0AC014E5F5F4F2417350748F04E0FB3
:1021B0005F1F5093B9194093B8198193919302C04E
:1021C000E0E0F0E0CF01DF91CF911F910F910895F2
:1021D000CF93DF93009709F481C0FC0132971382FB
:1021E0001282A091BA19B091BB19109781F4208185
:1021F0003181820F931F2091B8193091B919281796
:10220000390751F5F093B919E093B81967C0ED019A
:1022100020E030E0CE17DF0740F44A815B819E0169
:1022200041155105F1F0EA01F5CFD383C283408116
:102230005181840F951FC817D90759F48881998156
:10224000840F951F0296918380838A819B8193835B
:1022500082832115310529F4F093BB19E093BA1953
:102260003DC0E901FB83EA8349915991C40FD51F11
:10227000EC17FD0761F480819181840F951F029610
:10228000E90199838883828193819B838A83E0E03B
:10229000F0E012968D919C911397009719F0FD0133
:1022A000DC01F7CF8D919C9111979D012E5F3F4FDF
:1022B000820F931F2091B8193091B9192817390747
:1022C00069F4309729F41092BB191092BA1902C020
:1022D00013821282B093B919A093B819DF91CF91EC
:1022E00008950F931F93CF93DF938C01FC0101900E
:1022F0000020E9F7CF01801B910BD2DEEC010097A3
:1023000011F0B8011AD0CE01DF91CF911F910F913A
:102310000895FB01DC010D900020E9F71197019071
:102320000D920020E1F70895FB01DC018D910190F1
:1023300080190110D9F3990B0895FB01DC0101907C
:102340000D920020E1F70895FB01DC01415050405F
:1023500030F08D910190801919F40020B9F7881B95
:10236000990B0895FA01A191B081009719F4109783
:10237000E1F0CD01DC01CD010D90002011F4C00190
:1023800013C0FB012191222319F02015D9F7F3CFB7
:10239000FB012191201519F41E92119606C02223EB
:1023A000C1F70D900020A1F7D001FA01A193B083ED
:0623B0000895F894FFCF30
:1023B6000000BC1920000100460032001F003F004B
:1023C6001F0041542B4F52474C0041542B5245534A
:1023D60045540041542B524F4C453D310041542B3E
:1023E600494E49540041542B494E514D3D302C34F1
:1023F6002C34002C004E2F410041542B494E5100E5
:10240600317374206E616D653A2000327374206EEC
:10241600616D653A2000337374206E616D653A20F4
:1024260000347374206E616D653A200041542B525E
:102436004E414D453F000D004552524F52204E41F0
:102446004D45003E00456E746572004261636B0047
:10245600557000446F776E00596F75207069636B15
:1024660065643A00596F752064656C657465643AF5
:10247600004C4F434B204155544F004C4F434B208B
:102486004F4646004C4F434B204F4E00534541525A
:102496004348494E470057454C434F4D450041562A
:1024A600414C49424C4520444556494345533A0020
:1024B60052454D4F5645204445564943453A0041FD
:1024C6004444204445564943450052454D4F5645E0
:1024D6002044455649434500555044415445000063
:1024E60000000000000000000000000000000000E6
:1024F60000000000000000000000000000000000D6
:1025060000000000000000000000000000000000C5
:102516000000000000000000FFFF80FFFF800000B9
:1025260000000000000000000000000000000000A5
:102536000000000000000000000000000000000095
:102546000000000000000010000000001000000065
:1025560000380000000078000000007C0000000049
:10256600FE00000000FE00000001FF00000003FF67
:1025760000000003FF80000007FF80000007FFC087
:1025860000000FFFE000000FFFE000001FFFF0005B
:10259600003FFFF0000037FFF8000067FFF800007B
:1025A60063FFFC0000C1FFFC000181FFFE0001800B
:1025B600FFFF000300FFFF0003007FFF8006007F90
:1025C600FF800E003FFFC00C003FFFC018001FFF3A
:1025D600E01FFFFFFFE03FFFFFFFF070000FFFF877
:1025E600600007FFF8E00003FFFCC00000000000E9
:1025F600000000FFFFF000FFFFFE00FFFC0F80FF62
:10260600FC01C0FFFC00E0FFFC0070FFFC0030FF97
:10261600FC0038FFFC0018FFFC0018FFFC0018FF48
:10262600FC0018FFFC0018FFFC0030FFFC0030FF28
:10263600FC0060FFFC20E0FFFC3F80FFFC1F80FFEA
:10264600FC00C0FFFC0060FFFC0030FFFC0030FF18
:10265600FC0030FFFC0030FFFC0030FFFC0060FF98
:10266600FC0060FFFC01C0FFFC0780FFFFFF00FFCE
:10267600FFF8000000000000000000FFFFFFFFFF62
:10268600FFFFFF007FFE00007FFE00007FFE0000D0
:102696007FFE00007FFE00007FFE00007FFE000040
:1026A6007FFE00007FFE00007FFE00007FFE000030
:1026B6007FFE00007FFE00007FFE00007FFE000020
:1026C6007FFE00007FFE00007FFE00007FFE000010
:1026D6007FFE00007FFE00007FFE00007FFE000000
:1026E6007FFE00007FFE00007FFE00007FFE0000F0
:1026F6007FFE00007FFE00007FFE0000000000025B
:1027060000000007001A000D0034000D00680014D8
:10271600009C000E00EA0002001E010600380106B9
:1027260000520108006C010C0086010200BA010784
:1027360000D4010200EE01080008020D0022020783
:102746000056020D0070020D00A4020E00D8020D04
:10275600000C030D0040030D0074030D00A8030DCB
:1027660000DC030200100402002A040C0044040CDE
:102776000078040C00AC040B00E0041700140512EA
:102786000062050E00B0051000E405100018060EE4
:10279600004C060D0080061100B406100002070268
:1027A6000036070B005007100084070C00B807120C
:1027B60000EC0710003A0811006E080E00BC081164
:1027C60000F00810003E090E0072090E00A609105E
:1027D60000DA0912000E0A19005C0A1200C40A1275
:1027E60000120B0D00600B0500940B0800AE0B05E4
:1027F60000C80B0B00E20B0F00160C05004A0C0C70
:1028060000640C0C00980C0C00CC0C0C00000D0D98
:1028160000340D0800680D0C00820D0B00B60D0289
:1028260000EA0D0400040E0C001E0E0200520E12E9
:10283600006C0E0B00BA0E0D00EE0E0C00220F0CF3
:1028460000560F07008A0F0C00A40F0700D80F0BC5
:1028560000F20F0C00261014005A100D00A8100CE0
:1028660000DC100C0010110800441102005E110873
:102876000078110E0092110000C0C0C0C0C0C0C0D8
:10288600C0C0C0C0C0C0C00000C0C0C000000000C2
:10289600000000C6C6C6C6C6C6C6000000000000C8
:1028A600000000000000000000000000000000061C
:1028B6003006300C600C600C607FF87FF818C0188A
:1028C600C018C018C018C0FFF0FFF0318031803149
:1028D60080630063000000000000000000000002AA
:1028E6000002000FC03FE07270C238C218C200E298
:1028F6000072003F000FE002F002380218C218C250
:1029060018623872703FE00F80020002000000007B
:102916000000000000000000003E03007F0600E308
:102926008600C18C00C18C00C19800C19800E3B03C
:10293600007F30003E67C000CFE000DC70019830B9
:10294600019830031830031830061C70060FE00C8F
:1029560007C00000000000000000000000000000AA
:1029660000000000000F801FC038E0306030603883
:102976006019C01F801E003F00730CE38CC1DCC0D1
:10298600F8C078E07070F83FDC1F08000000000017
:1029960000000000000000C0C0C0C0C0C0C00000F1
:1029A6000000000000000000000000000000000021
:1029B600000C18183030606060C0C0C0C0C0C0C015
:1029C600C0606060303018180C0000C060603030A5
:1029D6001818180C0C0C0C0C0C0C0C1818183030A1
:1029E6006060C000001818DBFF183C662400000079
:1029F60000000000000000000000000000000000D1
:102A060000000000000000060006000600060006A2
:102A160000FFF0FFF00600060006000600060000B4
:102A260000000000000000000000000000000000A0
:102A36000000000000000000000000000000000090
:102A4600000000C0C0C04040408000000000000000
:102A56000000000000000000FEFE00000000000074
:102A66000000000000000000000000000000000060
:102A760000000000000000C0C0C000000000000010
:102A86000003070606060C0C0C18181830303060C8
:102A96006060E0C00000000000000000000F803F02
:102AA600E0306060306030C018C018C018C018C070
:102AB60018C018C018C018C0186030603030603FA9
:102AC600E00F80000000000000000000000000068B
:102AD600060E1EFEF6060606060606060606060688
:102AE60006060000000000000000000FC03FE07076
:102AF600706038C018C01800180038003000600137
:102B0600C0038007001C00380070006000FFF8FF5B
:102B1600F800000000000000000000000000001F98
:102B2600803FE07060E030C0300030003000E007E9
:102B3600C007E00070003800180018C018E03870B0
:102B4600703FE01F80000000000000000000000051
:102B5600000000006000E000E001E003600660069F
:102B6600600C601860186030606060C060FFFCFF39
:102B7600FC006000600060006000000000000000D3
:102B8600000000000000003FF03FF0300030003051
:102B960000600067807FE0787060300018001800E1
:102BA600180018C018E03070703FE01F8000000069
:102BB60000000000000000000000000FC01FE03809
:102BC6007070186018E000C000CF80DFE0F070C0C1
:102BD60038C018C018C0186018603038701FE00F71
:102BE600800000000000000000000000000000FF60
:102BF600F8FFF80038003000300060006000C000C8
:102C0600C001800180030003000700060006000CD7
:102C1600000C00180000000000000000000000008A
:102C26000000000F803FE0707060306030603070F0
:102C36007038E01FC01FC038E06030C018C018C030
:102C460018E03870703FE01FC00000000000000070
:102C5600000000000000000F803FC070E06030C040
:102C660030C018C018C018E01870783FD80F980008
:102C7600180038C030C07070E03FC01F80000000F0
:102C86000000000000000000000000000000C0C0BE
:102C9600C00000000000000000C0C0C0000000002E
:102CA6000000000000000000C0C0C00000000000DE
:102CB600000000C0C0C0404040800000000000008E
:102CC60000000000000010007003E00F803E00F8D6
:102CD60000C000F8003E000F8003E0007000100006
:102CE60000000000000000000000000000000000DE
:102CF60000000000000000000000000000FFF0FFE0
:102D0600F00000000000000000FFF0FFF0000000EF
:102D160000000000000000000000000000000000AD
:102D2600000000000000000000000000008000E03D
:102D3600007C001F0007C001F0003001F007C01F33
:102D4600007C00E0008000000000000000000000A1
:102D560000000000000000000000001F003FC070DF
:102D6600C06060C060C060006000C00180070006EF
:102D7600000C000C000C00000000000C000C000C05
:102D8600000000000000000000000000000000003D
:102D960000007F0003FFC00780F00E00381C0018FB
:102DA600387D8C70FF8C61C786638386C30306C734
:102DB6000306C60306C60306C6060EC6060CC60EE0
:102DC6001C631E3863F7F071E3C03800001C000076
:102DD6000F804003FFE000FF8000000000000001BC
:102DE600C00001E0000360000370000330000630FD
:102DF600000618000E18000C0C000C0C00180C0035
:102E06001FFE001FFE0030030030030060038060D9
:102E16000180600180C000C00000000000000000CA
:102E26000000000000000000000000FFC0FFF0C02E
:102E360030C018C018C018C018C030FFE0FFF0C07E
:102E460038C01CC00CC00CC00CC01CC038FFF0FF42
:102E5600C0000000000000000000000000000007A5
:102E6600F00FF83C1E300660036003C000C000C0CF
:102E760000C000C000C000C0006003600330063C14
:102E86001E0FFC07F000000000000000000000001C
:102E9600000000FFC0FFF0C03CC00CC006C006C06A
:102EA60003C003C003C003C003C003C003C006C001
:102EB60006C00CC03CFFF0FFC00000000000000090
:102EC60000000000000000FFFCFFFCC000C000C0C6
:102ED60000C000C000C000FFF8FFF8C000C000C07E
:102EE60000C000C000C000C000FFFCFFFC000000E6
:102EF6000000000000000000000000FFF8FFF8C01E
:102F060000C000C000C000C000C000FFF0FFF0C05D
:102F160000C000C000C000C000C000C000C000C0AB
:102F2600000000000000000000000000000000009B
:102F36000003F0000FFC001C0E003003006001804F
:102F4600600180C00000C00000C00000C07F80C0DB
:102F56007F80C00180C001806001806001803003F5
:102F6600801C0F800FFD8003F98000000000000028
:102F760000000000000000000000000000C003C0C8
:102F860003C003C003C003C003C003C003FFFFFFA9
:102F9600FFC003C003C003C003C003C003C003C017
:102FA60003C003000000000000000000000000C095
:102FB600C0C0C0C0C0C0C0C0C0C0C0C0C0C0C0C00B
:102FC600C0C00000000000000000000060006000BB
:102FD60060006000600060006000600060006000EB
:102FE6006000600060C060C060E06060C07FC01FBD
:102FF600000000000000000000000000000000C00B
:103006000CC018C030C060C0C0C180C300C600CFAD
:1030160000DB80F180E0C0C060C070C038C018C05E
:103026000CC006C007000000000000000000000001
:10303600000000C000C000C000C000C000C000C04A
:1030460000C000C000C000C000C000C000C000C07A
:1030560000C000C000FFF0FFF0000000000000000C
:10306600000000000000000000F003C0F003C0F004
:1030760003C0D806C0D806C0D806C0CC0CC0CC0C3D
:10308600C0CC0CC0C618C0C618C0C618C0C330C055
:10309600C330C0C330C0C1E0C0C1E0C0C1E0C0C0E1
:1030A600C0C000000000000000000000000000009A
:1030B6000000000000E003E003F003D803D803CCCF
:1030C60003C603C703C303C183C0C3C0E3C063C051
:1030D60033C01BC01BC00FC007C0070000000000A4
:1030E600000000000000000000000003F0000FF8E0
:1030F600003C1E00300600600300600300C0018033
:10310600C00180C00180C00180C00180C00180C0B4
:1031160001806003006003003006003C1E000FF8CB
:103126000003F000000000000000000000000000A6
:1031360000000000000000FFE0FFF8C038C01CC01F
:103146000CC00CC00CC01CC038FFF0FFC0C000C0D3
:1031560000C000C000C000C000C000C000000000E9
:103166000000000000000000000000000003F00066
:103176000FF8003C1E00300600600300600300C02C
:103186000180C00180C00180C00180C00180C001F3
:1031960080C00380602300607700303E003C1E0044
:1031A6000FFF0007E38000010000000000000000A0
:1031B600000000000000000000FFF0FFFCC01CC083
:1031C6000EC006C006C006C006C01CFFF8FFE0C061
:1031D60038C018C00CC00CC006C006C006C003002C
:1031E600000000000000000000000000000FC01FEB
:1031F600F038386018600C600C70003C001FC00F7F
:10320600F000F8001CC00CC00CE00C601C78383FC5
:10321600F00FC000000000000000000000000000E9
:1032260000FFFCFFFC030003000300030003000390
:103236000003000300030003000300030003000370
:10324600000300030003000000000000000000006F
:103256000000000000C003C003C003C003C003C0D9
:1032660003C003C003C003C003C003C003C003C040
:1032760003E0076006781E3FFC0FF0000000000028
:103286000000000000000000000000C000C0600157
:103296008060018070038030030030030018060050
:1032A6001806001C0E000C0C000C0C00061800067C
:1032B600180007380003300003300001E00001E089
:1032C6000001E00000000000000000000000000017
:1032D6000000000000000000000000C01C0180C0CB
:1032E6001C01806036030060360300603603003040
:1032F60036060030630600306306003063060018A9
:10330600C18C0018C18C0018C18C000D80D8000D2E
:1033160080D8000D80D8000D80D800070070000707
:1033260000700007007000000000000000000000B0
:103336000000000000000000000000000000000087
:10334600007003803003001806000C0C00061800FD
:1033560006180003300001E00000C00001C00001B3
:10336600E0000330000618000C0C000C0C001806D8
:1033760000300300600180E001C000000000000092
:10338600000000000000000000000000000000C077
:1033960000C06001807003803003001806000C0C2A
:1033A6000006180006180003300001E00000C00007
:1033B60000C00000C00000C00000C00000C0000047
:1033C600C00000C00000C0000000000000000000B7
:1033D60000000000000000000000007FF87FF800F9
:1033E600380030006000E000C001800300070006DE
:1033F600000C001800380030006000E000FFF8FF05
:10340600F8000000000000000000000000F8F8C00E
:10341600C0C0C0C0C0C0C0C0C0C0C0C0C0C0C0C0A6
:10342600C0C0C0F8F80000C0E060606030303018FE
:1034360018180C0C0C060606070300000000000016
:1034460000F8F8181818181818181818181818184E
:1034560018181818181818F8F8000000000E000EB2
:10346600001B001B00318071C060C0C060000000FE
:103476000000000000000000000000000000000046
:103486000000000000000000000000000000000036
:103496000000000000000000000000000000000026
:1034A6000000000000000000000000000000000016
:1034B60000000000000000000000000000FFFE0009
:1034C6000000E0703018000000000000000000005E
:1034D60000000000000000000000000000000000E6
:1034E6000000000000000000001F807FE0E070C0C8
:1034F6003000300FF03FF07030C030C030C030E0E8
:10350600F07FF03F300000000000000000000000E7
:10351600000000C000C000C000C000C000CF80FF97
:10352600C0F0E0E060C030C030C030C030C030C055
:1035360030C060F0E0FFC0DF0000000000000000C7
:103546000000000000000000000000000000000075
:10355600000F803FC070606030C030C000C000C047
:1035660000C000C030603070603FC00F80000000B7
:1035760000000000000000000000000030003000E5
:1035860030003000300FB03FF070F06030C030C017
:1035960030C030C030C030C030607070F03FF01FB7
:1035A60030000000000000000000000000000000E5
:1035B6000000000000000000000F803FE070706017
:1035C60030C018C018FFF8FFF8C000C018601870A7
:1035D600703FE00FC0000000000000000000000087
:1035E600000F1F383030FEFE303030303030303093
:1035F6003030303000000000000000000000000005
:10360600000000000000000FB03FF070F06030C016
:1036160030C030C030C030C030C030607070F03F55
:10362600F01F300030C070E0E07FC01F8000000057
:1036360000C000C000C000C000C000CF80DFC0F0E6
:10364600E0E060C060C060C060C060C060C060C0D4
:1036560060C060C060C060000000000000000000A4
:10366600000000C0C0000000C0C0C0C0C0C0C0C0D4
:10367600C0C0C0C0C0C00000000000000030300064
:103686000000303030303030303030303030303094
:10369600303030F0E000000000C000C000C000C0C4
:1036A60000C000C0C0C180C300C600CC00D800FC6A
:1036B60000E600C700C380C180C0C0C060C0700003
:1036C6000000000000000000000000C0C0C0C0C034
:1036D600C0C0C0C0C0C0C0C0C0C0C0C0C0C0000064
:1036E60000000000000000000000000000000000D4
:1036F6000000000000000000CF0F00DF9F80F1F106
:10370600C0E0E0C0C0C0C0C0C0C0C0C0C0C0C0C073
:10371600C0C0C0C0C0C0C0C0C0C0C0C0C0C0C0C0A3
:10372600C0C0000000000000000000000000000013
:10373600000000000000000000000000000000CFB4
:1037460080DFC0F0E0E060C060C060C060C060C004
:1037560060C060C060C060C060C060000000000063
:103766000000000000000000000000000000000053
:103776000000000F803FE070706030C018C018C0B5
:1037860018C018C018C018603070703FE00F800075
:103796000000000000000000000000000000000023
:1037A60000000000000000CF80FFC0F0E0E060C035
:1037B60030C030C030C030C030C030C060F0E0FF34
:1037C600C0DF00C000C000C000C000C00000000094
:1037D60000000000000000000000000FB03FF07085
:1037E600F06030C030C030C030C030C030C0306053
:1037F6007070F03FF01F30003000300030003000B5
:103806003000000000000000CEFEF0C0C0C0C0C006
:10381600C0C0C0C0C0C00000000000000000000022
:103826000000000000000000001F807FE0E070C084
:1038360030C000F8007F800FE00070C030C03060FC
:10384600707FE01F80000000000000000000000004
:10385600000000303030FEFE303030303030303056
:1038660030303E1E00000000000000000000000096
:1038760000000000000000C060C060C060C060C002
:1038860060C060C060C060C060C060C0E0E1E07F52
:10389600603E600000000000000000000000000024
:1038A6000000000000000000000000C03060606002
:1038B60060606030C030C030C01980198019800F38
:1038C600000F000F000600000000000000000000CE
:1038D60000000000000000000000000000000000E2
:1038E600000000000000C06030E0607060F06060C2
:1038F600F06060F0603198C03198C03198C01B0DFF
:10390600801B0D801B0D800E07000E07000E0700A2
:1039160000000000000000000000000000000000A1
:1039260000000000000000000000000000E0386019
:1039360030306018C018C00D80070007000D8018D1
:10394600C018C030606030E03800000000000000A1
:103956000000000000000000000000000000000061
:1039660000C03060606060606030C030C030C01938
:1039760080198019800F000F000F00060006000C4A
:10398600001C00780070000000000000000000002D
:1039960000000000007FF07FF0007000E001C0032F
:1039A6008007000E001C0038007000E000FFF0FFEA
:1039B600F0000000000000000000000000070F1CDF
:1039C6001818181818181830E0E0301818181818B1
:1039D60018181C0F070000C0C0C0C0C0C0C0C0C0BF
:1039E600C0C0C0C0C0C0C0C0C0C0C0C0C0C0C00091
:1039F60000E0F038181818181818180C07070C18D3
:103A060018181818181838F0E0000000007C04FF99
:103A16000CC3FC80F800000000000000000000005D
:103A26000000000000000000000000000000000090
:0E3A3600000000000000000000000000000082
:00000001FF
