S00F0000677261706869632E7372656337
S113000071C0000090C000008EC000008CC00000D1
S11300108AC0000088C0000086C0000084C00000C0
S113002082C0000080C000007EC000007CC00000D0
S11300307AC0000078C0000076C0000074C00000E0
S113004072C0000013C600006EC000006CC0000047
S11300506AC0000068C0000066C0000064C0000000
S113006062C0000060C000005EC000005CC0000010
S11300705AC0000058C0000056C0000054C0000020
S113008052C0000050C000004EC000004CC0000030
S11300904AC0000048C0000046C0000044C0000040
S11300A042C0000040C000003EC000003CC0000050
S11300B03AC0000038C0000036C0000034C0000060
S11300C032C0000030C000002EC000002CC0000070
S11300D02AC0000028C0000026C0000024C0000080
S11300E022C0000011241FBECFEFD1E2DEBFCDBF7E
S11300F000E00CBF18E1A0E0B2E0EAE7F3E200E0C0
S11301000BBF02C007900D92A239B107D9F729E1BC
S1130110A2E9B8E101C01D92A03CB207E1F70E9438
S11301202F0E0C94BB116CCF0F931F93CF93DF93BF
S11301308C01FC0101900020E9F7CF01801B910B99
S113014004960E943210EC01B8010E947F11FE0156
S113015001900020E9F731978DE09AE09183808344
S11301601282CE010E94CC0FCE010E94CA10DF91F0
S1130170CF911F910F9108951092C1181092C01839
S11301802FEF83ED90E3215080409040E1F700C0D1
S1130190000087E192E0C8DF2FEF83ED90E3215068
S11301A080409040E1F700C000008FE192E0BCDFA6
S11301B02FEF83ED90E3215080409040E1F700C0A1
S11301C0000088E292E0B0DF2FEF83ED90E321504E
S11301D080409040E1F700C0000082E392E0A4DF99
S11301E02FEF8DE399E4215080409040E1F700C067
S11301F000008AE392E098DF2FEF8DE399E4215029
S113020080409040E1F700C0000008952F923F9293
S11302104F925F926F927F928F929F92AF92BF9212
S1130220CF92DF92EF92FF920F931F93CF93DF93BE
S1130230CDB7DEB72C970FB6F894DEBF0FBECDBF97
S11302408C0185E090E00E9432107C0183E090E014
S11302500E9432106C0183E090E00E9432101C0175
S1130260F80133979801275D3E4F81918B3291F4C9
S11302708081893479F481818E3461F4828181357D
S113028049F48091B0189091B11801969093B118E7
S11302908093B018E217F30741F7AE014F5F5F4F49
S11302A062E173E0C8010E9494118091B0189091AA
S11302B0B118181619060CF09DC0CE0103969C8740
S11302C08B87A12CB12C0F2EFCE24F2E512CF02D3C
S11302D015C01A141B0494F4AE014F5F5F4F68E419
S11302E072E080E090E00E949411AE014F5F5F4F96
S11302F062E173E080E090E00E949411AE014F5FF0
S11303005F4F62E173E080E090E00E9494114C0141
S1130310F10193838283AE014F5F5F4F62E173E02B
S113032080E090E00E9494118C01F1019583848314
S1130330AE014F5F5F4F68E472E080E090E00E949E
S113034094113C01F10197838683B401C7010E9493
S11303507F11F70101900020E9F731975182408223
S1130360B801C6010E947F11F60101900020E9F74F
S1130370319751824082F70101900020E9F73197CB
S1130380CF018E199F09F60101900020E9F73197FA
S1130390EC19FD098E0F9F1F01960E9432108C01EB
S11303A0B7010E947F11B601C8010E946B11F801C8
S11303B001900020E9F7CF01801B910B06960E9463
S11303C032104C01B8010E947F11B301C4010E9494
S11303D06B11EB85FC8581929192FC87EB87FFEF93
S11303E0AF1ABF0A8091B0189091B118A816B90637
S11303F00CF46FCF8091C0189091C1188230910590
S1130400B1F12CF4009759F00197E1F078C08330F2
S1130410910509F443C0049709F459C070C08AE4F3
S113042092E09093AD188093AC189093B718809392
S1130430B6189093B5188093B4189093BF1880930E
S1130440BE185DC08B819C819093AD188093AC18CD
S11304508AE492E09093B7188093B6189093B518F5
S11304608093B4189093BF188093BE1848C08B81B2
S11304709C819093AD188093AC188D819E8190934C
S1130480B7188093B6188AE492E09093B5188093D5
S1130490B4189093BF188093BE1831C08B819C818F
S11304A09093AD188093AC188D819E819093B7186A
S11304B08093B6188F8198859093B5188093B4185B
S11304C08AE492E09093BF188093BE1818C08B8181
S11304D09C819093AD188093AC188D819E819093EC
S11304E0B7188093B6188F8198859093B518809328
S11304F0B41889859A859093BF188093BE182C965A
S11305000FB6F894DEBF0FBECDBFDF91CF911F9120
S11305100F91FF90EF90DF90CF90BF90AF909F909E
S11305208F907F906F905F904F903F902F900895A1
S1130530EF92FF920F931F93CF93DF93CDB7DEB764
S1130540CC52D1400FB6F894DEBF0FBECDBF10928F
S1130550B1181092B0188EE492E0E6DD8E010150DD
S113056011097E0185EDE81A8EEFF80A0E94BC0F8E
S1130570F801828390810F5F1F4F9F3431F4D801BB
S11305809C919B3411F48D3019F00E151F0571F7F1
S1130590CE0101963BDE8CE892E0C6DD85E592E073
S11305A00E94CC0F8091AC189091AD18BDDD80E60F
S11305B092E00E94CC0F8091B6189091B718B4DDE8
S11305C08BE692E00E94CC0F8091B4189091B518FC
S11305D0ABDD86E792E00E94CC0F8091BE1890912B
S11305E0BF18A2DDC45DDE4F0FB6F894DEBF0FBEA8
S11305F0CDBFDF91CF911F910F91FF90EF900895A0
S11306002F923F924F925F926F927F928F929F921E
S1130610AF92BF92CF92DF92EF92FF920F931F930C
S1130620CF93DF93CDB7DEB72C970FB6F894DEBF28
S11306300FBECDBF8C01FC0133979C01275D3E4F5B
S113064081918B3291F48081893479F481818E3463
S113065061F48281813549F48091C0189091C11868
S113066001969093C1188093C018E217F30741F7DD
S113067085E090E00E9432107C0183E090E00E94CB
S113068032106C01AE014F5F5F4F62E173E0C8014D
S11306900E94941183E090E00E9432101C0180912A
S11306A0C0189091C118181619060CF09DC0CE01FF
S11306B003969C878B87A12CB12C0F2EFCE24F2E26
S11306C0512CF02D15C01A141B0494F4AE014F5F85
S11306D05F4F68E472E080E090E00E949411AE0104
S11306E04F5F5F4F62E173E080E090E00E949411FD
S11306F0AE014F5F5F4F62E173E080E090E00E94E3
S113070094114C01F10193838283AE014F5F5F4FDB
S113071062E173E080E090E00E9494118C01F101A9
S113072095838483AE014F5F5F4F68E472E080E09D
S113073090E00E9494113C01F10197838683B401F7
S1130740C7010E947F11F70101900020E9F731975A
S113075051824082B801C6010E947F11F6010190C6
S11307600020E9F7319751824082F701019000207F
S1130770E9F73197CF018E199F09F6010190002006
S1130780E9F73197EC19FD098E0F9F1F01960E941E
S113079032108C01B7010E947F11B601C8010E947A
S11307A06B11F80101900020E9F7CF01801B910B38
S11307B006960E9432104C01B8010E947F11B301C9
S11307C0C4010E946B11EB85FC8581929192FC8798
S11307D0EB87FFEFAF1ABF0A8091C0189091C11840
S11307E0A816B9060CF46FCF82309105B1F12CF440
S11307F0009759F00197E1F078C08330910509F42E
S113080043C0049709F459C070C08AE492E09093FD
S1130810AF188093AE189093C3188093C218909326
S1130820B3188093B2189093AB188093AA185DC044
S11308308B819C819093AF188093AE188AE492E0E8
S11308409093C3188093C2189093B3188093B218EE
S11308509093AB188093AA1848C08B819C81909385
S1130860AF188093AE188D819E819093C3188093A6
S1130870C2188AE492E09093B3188093B2189093CC
S1130880AB188093AA1831C08B819C819093AF18C8
S11308908093AE188D819E819093C3188093C21863
S11308A08F8198859093B3188093B2188AE492E06C
S11308B09093AB188093AA1818C08B819C81909355
S11308C0AF188093AE188D819E819093C318809346
S11308D0C2188F8198859093B3188093B218898534
S11308E09A859093AB188093AA182C960FB6F89417
S11308F0DEBF0FBECDBFDF91CF911F910F91FF904F
S1130900EF90DF90CF90BF90AF909F908F907F90AB
S11309106F905F904F903F902F900895CF92DF9209
S1130920EF92FF920F931F93CF93DF93CDB7DEB770
S1130930C255D1090FB6F894DEBF0FBECDBF7C01FE
S113094088E190E00E9432108C018AE0E1E8F2E054
S1130950D80101900D928A95E1F7B701C8010E9470
S11309606B112FEF84E39CE0215080409040E1F72D
S113097000C00000C801D8DB8E010D5F1F4F7E014F
S1130980E3E5EE0EF11CC12CD12C0E94BC0FF80142
S113099081938F018D3039F4FFEFCF1ADF0A22E003
S11309A0C216D10419F00E151F0579F7AE014F5F79
S11309B05F4F62E173E0CE0103960E949411AE0191
S11309C04F5F5F4F6BE872E080E090E00E9494110B
S11309D00E945311CE5ADF4F0FB6F894DEBF0FBEFC
S11309E0CDBFDF91CF911F910F91FF90EF90DF90DA
S11309F0CF900895EF92FF920F931F93CF93DF93BD
S1130A00CDB7DEB7CC52D1400FB6F894DEBF0FBEDF
S1130A10CDBF1092C1181092C0188EE492E084DB0E
S1130A208E01015011097E0185EDE81A8EEFF80A56
S1130A300E94BC0FF801828390810F5F1F4F9F3487
S1130A4031F4D8019C919B3411F48D3019F00E15BA
S1130A501F0571F7CE010196D3DD0091AE181091F8
S1130A60AF1840E051E06AE472E0C8010E948611C8
S1130A70892B39F0C80152DF9093BB188093BA18C0
S1130A8006C08AE492E09093BB188093BA18009150
S1130A90C2181091C31840E051E06AE472E0C80142
S1130AA00E948611892B39F0C80138DF9093B91858
S1130AB08093B81806C08AE492E09093B9188093A2
S1130AC0B8180091B2181091B31840E051E06AE4EC
S1130AD072E0C8010E948611892B39F0C8011EDF1B
S1130AE09093A9188093A81806C08AE492E0909382
S1130AF0A9188093A8180091AA181091AB1840E087
S1130B0051E06AE472E0C8010E948611892B39F031
S1130B10C80104DF9093BD188093BC1806C08AE412
S1130B2092E09093BD188093BC188CE892E0FCDAB4
S1130B3085E592E00E94CC0F8091BA189091BB1881
S1130B40F3DA80E692E00E94CC0F8091B81890917D
S1130B50B918EADA8BE692E00E94CC0F8091A818CB
S1130B609091A918E1DA86E792E00E94CC0F809177
S1130B70BC189091BD18D8DAC45DDE4F0FB6F89456
S1130B80DEBF0FBECDBFDF91CF911F910F91FF90BC
S1130B90EF9008958230910579F01CF4019739F0B3
S1130BA01AC08330910569F0049781F014C08091D4
S1130BB0BA189091BB1808958091B8189091B918FB
S1130BC008958091A8189091A91808958091BC184F
S1130BD09091BD1808958DE892E0089582309105B2
S1130BE079F01CF4019739F01AC08330910569F04B
S1130BF0049781F014C08091AE189091AF180895B5
S1130C008091C2189091C31808958091B218909160
S1130C10B31808958091AA189091AB1808958DE89F
S1130C2092E008958230910579F01CF4019739F02F
S1130C301AC08330910569F0049781F014C0809143
S1130C40AC189091AD1808958091B6189091B7188A
S1130C5008958091B4189091B51808958091BE18A4
S1130C609091BF1808958DE892E008951F920F9215
S1130C700FB60F9211248F939F93AF93BF938091DC
S1130C80C4189091C518A091C618B091C7180196C0
S1130C90A11DB11D8093C4189093C518A093C618C4
S1130CA0B093C718BF91AF919F918F910F900FBED2
S1130CB00F901F901895EF920F93CF9380919618F1
S1130CC090919718181619060CF03EC0CEE1C89FF3
S1130CD0A001C99F500D112480910802909109022E
S1130CE0480F591F60910A0270910B0264517109F7
S1130CF00F2EFFE1EF2EF02D0FE32FE188E992E0B4
S1130D0035D78091961890919718019790939718DA
S1130D1080939618C89FA001C99F500D11248091FB
S1130D20080290910902480F591F60910A027091BC
S1130D300B0264517109E12C00E020E088E992E0A3
S1130D4015D781E090E002C080E090E0CF910F9150
S1130D50EF900895EF920F93CF93209196183091CE
S1130D60971880919418909195180197281739072E
S1130D700CF03EC0CEE1C29FA001C39F500D1124D0
S1130D808091080290910902480F591F60910A024C
S1130D9070910B02645171090F2EFFE1EF2EF02DBB
S1130DA00FE32FE188E992E0E1D6809196189091C3
S1130DB0971801969093971880939618C89FA0014E
S1130DC0C99F500D11248091080290910902480F87
S1130DD0591F60910A0270910B0264517109E12C50
S1130DE000E020E088E992E0C1D681E090E002C012
S1130DF080E090E0CF910F91EF900895EF920F93E0
S1130E00409108025091090260910A0270910B020C
S1130E1064517109E12C00E020E088E992E0A6D653
S1130E200F91EF900895CF92EF920F938091060265
S1130E30909107028130910581F4C12C0F2EFFE3BC
S1130E40EF2EF02D00E02CE330E04CE350E060E0C6
S1130E5070E085E091E0C1D40EC0892B61F4C12C0F
S1130E60E12C0FE12CE330E04CE350E060E070E073
S1130E7085E091E0B2D40F91EF90CF9008958091E6
S1130E8006029091070201968330910529F0909310
S1130E9007028093060204C0109207021092060211
S1130EA0C2CF0895EF920F9340E050E060E070E00D
S1130EB080E090E0D0D40F2EFFE1EF2EF02D0FE371
S1130EC02FE148EC50E06FE070E08AE992E04ED602
S1130ED02FE148EC50E06AE570E080EA92E046D603
S1130EE02FE148EC50E069EB70E085EA92E03ED6F1
S1130EF02FE148EC50E066EE70E088EA92E036D6E6
S1130F004FE150E06FE370E08FE190E0A4D40F91E3
S1130F10EF900895CF92EF920F930F2EFFE1CF2E13
S1130F20F02D0F2EFFE3EF2EF02D0FE120EF30E038
S1130F3040E451E060E070E080E090E04ED40F9136
S1130F40EF90CF900895AF92BF92CF92DF92EF923D
S1130F50FF920F931F93CF93DF935C016C0181E0A9
S1130F60C81AD1086130710509F03EC0C0919218C9
S1130F70D09193188601000F111FF801E256F74E25
S1130F806F016081718188E28C9F70018D9FF00CEC
S1130F901124C7018453974E0E947F11F801E8562B
S1130FA0F74E60817181C7018C5B964E0E947F1160
S1130FB02196D0939318C0939218ACDFE12C00E0F3
S1130FC020E044E650E062E370E08DEA92E0CED5A2
S1130FD020E04CE850E062E370E0F601808191810A
S1130FE0C5D581E090E05CC06230710509F055C060
S1130FF08091921890919318181619060CF04EC00F
S113100089DFE12C00E020E044E650E062E370E098
S113101089EB92E0ABD528E22C9DC0012D9D900D6B
S1131020112420E04CE850E062E370E08453974ED2
S11310309DD5E0909218F090931886010E0D1F1D17
S1131040C016D10604F588E28A9DE0018B9DD00D7F
S11310501124CE018453974E5C01CC5BD64E9FEF96
S1131060C91AD90AB501C50188970E947F11BE012A
S1131070CE0188970E947F11E8E2AE0EB11CA896BB
S1131080C016D10664F3F1E0EF1AF108F092931858
S1131090E092921881E090E003C002C080E090E00A
S11310A0DF91CF911F910F91FF90EF90DF90CF9040
S11310B0BF90AF900895EF920F93809106029091A4
S11310C007028230910521F54091080250910902EE
S11310D0445C5F4F60910A0270910B020F2EFFE196
S11310E0EF2EF02D0FE32FE186EC92E03FD54091F7
S11310F0080250910902445C5F4F60910A027091AA
S11311000B02E12C00E020E086EC92E02FD549C0F0
S1131110019721F54091080250910902445C5F4F08
S113112060910A0270910B020F2EFFE1EF2EF02D59
S11311300FE32FE186EC92E019D54091080250911B
S11311400902445C5F4F60910A0270910B02E12C2A
S113115000E020E080ED92E009D523C04091080230
S113116050910902445C5F4F60910A0270910B0236
S11311700F2EFFE1EF2EF02D0FE32FE186EC92E02E
S1131180F5D44091080250910902445C5F4F60918C
S11311900A0270910B02E12C00E020E089ED92E05C
S11311A0E5D40F91EF9008958F92AF92CF92DF9292
S11311B0EF92FF920F931F931F92812C0F2EFFE14A
S11311C0AF2EF02DC12CD12C6894EE24E4F8FF242A
S11311D0F3940AE010E02AE030E048E850E064E0EC
S11311E070E084E393E044D31F920F2EF6E0CF2EF9
S11311F0D12CF02D0F2EF6E6EF2EF12CF02D2AE255
S113120030E04AEA50E065E070E084E393E030D3F4
S11312101F92C12CD12CE12CF12C21E530E046E6C3
S113122050E063E070E084E393E022D31F920F2E3A
S1131230F8E9EF2EFF24F394F02D23E630E044E8A0
S113124050E064E070E084E393E012D31F920F2E29
S1131250F6E0CF2ED12CF02D0F2EF6E6EF2EF12C4A
S1131260F02D26E830E04AEA50E065E070E084E3DF
S113127093E0FED20F900F900F900F900F901F915C
S11312800F91FF90EF90DF90CF90AF908F900895E3
S1131290EF920F933FDEE12C00E020E04CE650E0BB
S11312A064E670E081EE92E061D47EDF0F91EF900E
S11312B00895EF920F932EDEE12C00E020E04CE63F
S11312C050E064E670E08BEE92E050D46DDF0F9155
S11312D0EF9008958F929F92AF92BF92CF92DF9238
S11312E0EF920F931F93CF93DF934C01029709F46E
S11312F0AAC083E08816910409F4F5C0E1E08E16D3
S1131300910409F0F3C0C4DF75DB08E918E1C12CCE
S1131310D12CFFEFCF1ADF0AC60160DCEC019093F9
S1131320CB188093CA18FC0101900020E9F7CF0183
S11313308C1B9D0B97D6F801819391938F01BE016D
S1131340DED7F4E0CF16D10421F70F2EFEE9AF2E3D
S1131350F8E1BF2EF02D8501C12CD12C2FEFC21A3C
S1131360D20AC60117DCEC019093C9188093C818FF
S1131370FC0101900020E9F7CF018C1B9D0B72D674
S1131380F801819391938F01BE01B9D7F4E0CF1690
S1131390D10421F7BFDD409108025091090248525F
S11313A0510960910A0270910B0268527109E12C93
S11313B000E020E083EF92E0D9D3109293181092CA
S11313C092180F2EF4E4CF2EF9E1DF2EF02DC0E0B9
S11313D0D0E062E172E0C60189D7892BD1F0409157
S11313E00802509109024C0F5D1F60910A0270912E
S11313F00B02E12C00E020E0F50180819181B6D35D
S113140080919218909193180196909393188093D9
S11314109218F8E2CF0ED11C6E9622E0A20EB11CF7
S1131420C837D105B1F6EADCFEDC3CDD80919218C8
S11314309091931890939518809394181092931800
S1131440109292187FC066DD109297181092961829
S113145040910802509109024852510960910A02D0
S113146070910B0268527109E12C00E020E085E0E4
S113147093E07CD38091921890919318909395184F
S113148080939418181619065CF50F2EFCECAF2EF9
S1131490F8E1BF2EF02DC12CD12CC0E0D0E040915A
S11314A00802509109024C0D5D1D60910A02709171
S11314B00B02E12C00E020E0C50158D32196809175
S11314C0921890919318EEE1CE0ED11CF8E2AF0E73
S11314D0B11CC817D9071CF3181619060CF48EDCB6
S11314E0A2DCE0DC2FC0CBDCE6DD2CC013DD83E026
S11314F090E090939518809394184091080250912D
S1131500090260910A0270910B02E12C00E020E0D4
S113151084E193E02BD34091080250910902425E8A
S11315205F4F60910A0270910B0220E08FE193E01B
S11315301DD3C1DD63DC77DCB5DC36DE1092971891
S113154010929618C401DF91CF911F910F91EF90E3
S1131550DF90CF90BF90AF909F908F9008956F923F
S11315607F928F929F92AF92BF92CF92DF92EF922F
S1131570FF920F931F93CF93DF9320910602309134
S113158007022230310509F07BC0892B09F078C0AD
S11315904091080250910902465A5F4F60910A0235
S11315A070910B02E12C00E020E08DE293E0DED2AA
S11315B00E9498020F2EF8E9AF2EF8E1BF2EF02D0D
S11315C0C12CD12C812C912C0F2EF4EEEF2EF9E1AD
S11315D0FF2EF02D66246394712C8FEFC81AD80A5D
S11315E0C60120DBEC019093CB188093CA18FC0150
S11315F001900020E9F7CF018C1B9D0B33D58501A9
S1131600F50191838083BE017AD6C4E4D9E1F8015F
S113161060817181CE016AD6892B39F46092060209
S11316207092070200DC862C972CA896CE15DF0555
S113163071F7F2E0AF0EB11C84E0C816D10469F66C
S1131640892829F41092070210920602ECDB82E04A
S113165090E0909307028093060240910802509113
S11316600902465A5F4F60910A0270910B020F2ED5
S1131670FFE1EF2EF02D0FE32FE18DE293E076D220
S1131680DF91CF911F910F91FF90EF90DF90CF905A
S1131690BF90AF909F908F907F906F90089588B97E
S11316A05F98A198A2980000A29A0000089592B9A8
S11316B088B95F9AA198A2980000A29A00000895A0
S11316C089E290E0ECCF089581E190E0E8CF0895BD
S11316D0CF93C82F86E390E0E2DF8C2F90E0E7DF22
S11316E0CF910895CF93C82F8AE390E0D8DF8C2F51
S11316F090E0DDDFCF91089583B3876083BB579A71
S11317008FEF81B987B984B3876084BB5F9AA0984F
S11317102FEF89E698E1215080409040E1F700C026
S11317200000A09A2FEF88E596E021508040904079
S1131730E1F700C00000C8DFC3DF88E0C9DF85E04F
S1131740D1CF08958CE290E0AACF089590E2699FEA
S1131750B0011124642B90E0982F8827990F990FDA
S1131760990F862B972BA3CF08950F931F93CF9395
S1131770DF93082FD92F162FC72F8AE290E08FDF2F
S11317808D2F90E094DF802F9D2F91DF8C2F90E0A0
S11317908EDF812F9C2F8BDFDF91CF911F910F91D3
S11317A008950F931F93CF93DF93082FD92F162FEC
S11317B0C72F8BE290E073DF8D2F90E078DF802FCE
S11317C09D2F75DF8C2F90E072DF812F9C2F6FDFB0
S11317D0DF91CF911F910F9108954F925F926F9275
S11317E07F928F929F92AF92BF92CF92EF920F937C
S11317F03B014A015901BC01640F751FD2DFB301DB
S11318006A0D7B1DC301B1DF9DDF9401D50107D4AF
S11318102B013C01672B682B692B89F0812C912CBF
S113182054014C2D6E2D802F91DF8FEF881A980A6A
S1131830A80AB80A84149504A604B70491F70F9172
S1131840EF90CF90BF90AF909F908F907F906F90CC
S11318505F904F90089590931102809310027093BB
S11318600F0260930E0250930D0240930C020895F0
S11318702F923F924F925F926F927F928F929F929C
S1131880AF92BF92CF92DF92EF92FF920F931F938A
S1131890CF93DF93CDB7DEB764970FB6F894DEBF6E
S11318A00FBECDBF788B6F875E874D873C832B83BC
S11318B028011601B82C295F3F4F141615060CF0A9
S11318C07EC0AB01440F551F440F551F440F551FD5
S11318D06B817C81640F751F7E836D836C01CE0CDC
S11318E0DF1CED85FE85EE0EFF1EAC014E0D5F1D67
S11318F058874F8339018B819C816894EE24E7F8E3
S1131900F12C0F2EF0E18F2EF2E09F2EF02D29877F
S11319103A875B815B876C816C871A8B098B3C8A65
S11319202B8A5A2C3B2C5801B3013BDFB501C5016E
S11319301CDF08DF00E010E04AA4F6018081282FB4
S113194030E0C701002E02C0959587950A94E2F70E
S113195082239323892B29F0442D632D852DF6DED4
S113196009C0ECE0F2E04081EEE0F2E06081F401D5
S11319708081ECDE0F5F1F4F08301105F1F69301F3
S1131980285F3F4F4D815E812417350724F4C3013E
S11319900196390107C05FEFA51AB50A69847A84F4
S11319A08B859C856FEFC61AD60AEF81F885CE1613
S11319B0DF0609F0B9CF49885A882B883C888D8581
S11319C09E856F857889F6D2161617060CF04EC0E0
S11319D06F847888660C771C660C771C660C771C01
S11319E09B01240D351D3A8329836894882483F848
S11319F0912C0F2EFCE0AF2EF2E0BF2EF02D0F2E17
S1131A00FEE0CF2EF2E0DF2EF02D0F2EF0E1EF2ED0
S1131A10F2E0FF2EF02D2114310409F41401C40165
S1131A2082199309A301481B590BCA016B817C815C
S1131A30860F971FBC01695F7F4FB3DEB201C201FD
S1131A4094DE80DE08E010E0F5014081F60160815B
S1131A50F70180817BDE01501109B1F7FFEF4F1AC6
S1131A605F0A29813A8124153505A9F664960FB6D3
S1131A70F894DEBF0FBECDBFDF91CF911F910F91C0
S1131A80FF90EF90DF90CF90BF90AF909F908F909A
S1131A907F906F905F904F903F902F9008958F921A
S1131AA0AF92CF92DF92EF92FF920F931F93CF9357
S1131AB0DF93DA013E2D4091A4185091A5184617E2
S1131AC0570741F07093A5186093A4187093A71852
S1131AD06093A618880F991FFC01EE0FFF1FEA5AA6
S1131AE0FA4FE080F180FC01EE0FFF1FE65AFA4F37
S1131AF0408151814E195F09880F991FFC01EC5AEE
S1131B00FA4FC081D181BE01769567957695679528
S1131B10769567956E0187E0C822DD241C141D04A8
S1131B2014F46F5F7F4F8091A6189091A7183F938C
S1131B30802EA22E8D019C018CEC96E099DE809182
S1131B40A6189091A7180196C80FD91FD093A7186B
S1131B50C093A6180F90DF91CF911F910F91FF9022
S1131B60EF90DF90CF90AF908F9008955F926F9237
S1131B707F928F929F92AF92BF92CF92DF92EF9219
S1131B80FF920F931F93CF93DF93CDB7DEB7E29706
S1131B900FB6F894DEBF0FBECDBF5B014A01122F12
S1131BA0F02E5E2CFE01319622E3DF011D922A9570
S1131BB0E9F7FC0120812223C1F1AE014F5F5F4FA1
S1131BC06A013196DA01612C712C30E02D933D933A
S1131BD05FEF651A750A21912111F7CF16141704C6
S1131BE024F5660C771C81E090E08C0F9D1F680E35
S1131BF0791ED6018D919D916D0181978F3FBFEF25
S1131C009B0739F0E52C0F2D212FA401B50147DFE7
S1131C1009C08091A6189091A7180A969093A718C6
S1131C208093A6186C147D0421F7B092A718A09293
S1131C30A618E2960FB6F894DEBF0FBECDBFDF91B3
S1131C40CF911F910F91FF90EF90DF90CF90BF90B5
S1131C50AF909F908F907F906F905F9008954CDD30
S1131C60F5D02EDD26DB2FEF83ED90E3215080406D
S1131C709040E1F700C000002EE448E060E076E91F
S1131C8080E090E02ED12FEF89E698E1215080404A
S1131C909040E1F700C000000E94BC002FEF83EDEC
S1131CA090E3215080409040E1F700C0000080E0C4
S1131CB090E010DB00E010E0AA24A394B12CC12C26
S1131CC0D12C81E090E0D3D0EC0182E090E0CFD041
S1131CD07C012FEF81EE94E0215080409040E1F7A9
S1131CE000C000000F5F1F4FCE0183569C4081311E
S1131CF09240A8F5C7018D5C91408330914078F5FE
S1131D00C114D10479F4C501E5DA4C0183E0A816C5
S1131D10B10409F476C0AA24A394B12CCC24C394AE
S1131D20D12C6FC091E0C916D10409F06AC0B40186
S1131D30C50109D9019709F064C02FEF83ED90E341
S1131D40215080409040E1F700C0000080E090E026
S1131D50C1DAAA24A394B12CC12CD12C52C0CE0137
S1131D60855D98408334924008F058C0C7018D5C6B
S1131D7091408330914008F051C080E090E0AADAAD
S1131D80CE01855096408132914080F0C12CD12CF7
S1131D90AA24A394B12C17C08DECE81A81E0F80AA8
S1131DA093E0E91691E0F90618F505C0AA24A39476
S1131DB0B12CC12CD12C0E945B06019749F521E07E
S1131DC0A21AB10825C0C95AD240CD34D24080F4F9
S1131DD09DECE91A91E0F90A23E0E21621E0F2060B
S1131DE038F40E94AA06019719F48FEFA81AB80ACA
S1131DF00233110509F065CFC601B1DB00E010E044
S1131E0060CFCE01855D98408334924038F4B5CFDD
S1131E10C95AD240CD34D24020F3EACFCE01855006
S1131E2096408132914078F6B7CFE2E0F1E08081CC
S1131E308860808300000000000000008081877FAC
S1131E40808300000000000000000895E1E0F1E05C
S1131E508081886080836B9A9D9A6D986C98739A40
S1131E60A59AE2E0F1E080818860808308950F9371
S1131E701F93CF93DF938130910529F0029731F4BA
S1131E8000ED10E005C000E910E002C000E010E041
S1131E90739800000000C7E0D0E0C8010C2E02C017
S1131EA0959587950A94E2F780FF02C0A59A01C030
S1131EB0A59800000000B9DF219778F70CE010E046
S1131EC0C0E0D0E0CC0FDD1FB0DF65992196015052
S1131ED01109C1F7739ACE01DF91CF911F910F9130
S1131EE008950F931F93522F8B019C010E561109D5
S1131EF0210931090339114C21403105D0F54550F0
S1131F004430B8F520E22093C00028E12093C100BA
S1131F10440F4093C200553431F4E2ECF0E02081E8
S1131F202062208307C05F3429F4E2ECF0E02081D2
S1131F3020632083DC01CB01880F991FAA1FBB1FDC
S1131F40880F991FAA1FBB1F9C01AD01220F331FCD
S1131F50441F551F220F331F441F551F60E074E2B6
S1131F6084EF90E03AD0215031092093C40030939B
S1131F70C5001F910F910895E0ECF0E08081882363
S1131F80ECF78091C6000895E0ECF0E0908195FFB5
S1131F90FDCF8093C6000895CF93DF93EC01888131
S1131FA0882329F02196F0DF89918111FCCFDF91FC
S1131FB0CF91089597FB072E16F4009406D077FD71
S1131FC008D03CD007FC05D03EF4909581959F4FF6
S1131FD00895709561957F4F0895A1E21A2EAA1B6A
S1131FE0BB1BFD010DC0AA1FBB1FEE1FFF1FA217C5
S1131FF0B307E407F50720F0A21BB30BE40BF50BC2
S1132000661F771F881F991F1A9469F7609570954A
S1132010809590959B01AC01BD01CF010895A29FCD
S1132020B001B39FC001A39F700D811D1124911DA8
S1132030B29F700D811D1124911D0895AA1BBB1B15
S113204051E107C0AA1FBB1FA617B70710F0A61BB4
S1132050B70B881F991F5A95A9F780959095BC01D5
S1132060CD0108950F931F93CF93DF938230910591
S113207010F482E090E0E091BE19F091BF1920E0E5
S113208030E0A0E0B0E0309719F140815181028145
S1132090138148175907C8F08417950769F41097F6
S11320A031F012960C93129713961C9327C0009349
S11320B0BE191093BF1922C02115310519F042171A
S11320C0530718F49A01BD01EF01DF01F801DBCFDA
S11320D021153105F9F0281B390B2430310580F422
S11320E08A819B816115710521F0FB0193838283B1
S11320F004C09093BF198093BE19FE01329644C068
S1132100FE01E20FF31F8193919322503109398329
S113211028833AC02091BC193091BD19232B41F476
S113212020910202309103023093BD192093BC190F
S113213020910002309101022115310541F42DB79F
S11321403EB74091040250910502241B350BE091E7
S1132150BC19F091BD19E217F307A0F42E1B3F0B35
S11321602817390778F0AC014E5F5F4F2417350705
S113217048F04E0F5F1F5093BD194093BC198193D3
S1132180919302C0E0E0F0E0CF01DF91CF911F9185
S11321900F910895CF93DF93009709F481C0FC0158
S11321A0329713821282A091BE19B091BF19109771
S11321B081F420813181820F931F2091BC193091C9
S11321C0BD192817390751F5F093BD19E093BC19CF
S11321D067C0ED0120E030E0CE17DF0740F44A810C
S11321E05B819E0141155105F1F0EA01F5CFD383DE
S11321F0C28340815181840F951FC817D90759F4B0
S113220088819981840F951F0296918380838A81A6
S11322109B81938382832115310529F4F093BF199F
S1132220E093BE193DC0E901FB83EA8349915991CA
S1132230C40FD51FEC17FD0761F480819181840FD1
S1132240951F0296E90199838883828193819B83F8
S11322508A83E0E0F0E012968D919C9113970097A9
S113226019F0FD01DC01F7CF8D919C9111979D012F
S11322702E5F3F4F820F931F2091BC193091BD19DF
S11322802817390769F4309729F41092BF1910926E
S1132290BE1902C013821282B093BD19A093BC1957
S11322A0DF91CF9108950F931F93CF93DF938C0108
S11322B0FC0101900020E9F7CF01801B910BD2DED5
S11322C0EC01009711F0B8011AD0CE01DF91CF9143
S11322D01F910F910895FB01DC010D900020E9F797
S11322E0119701900D920020E1F70895FB01DC01A4
S11322F08D91019080190110D9F3990B0895FB0178
S1132300DC0101900D920020E1F70895FB01DC014E
S11323104150504030F08D910190801919F4002003
S1132320B9F7881B990B0895FA01A191B081009720
S113233019F41097E1F0CD01DC01CD010D900020DE
S113234011F4C00113C0FB012191222319F02015BF
S1132350D9F7F3CFFB012191201519F41E921196A0
S113236006C02223C1F70D900020A1F7D001FA0185
S10D2370A193B0830895F894FFCF01
S113237A0000C01920000100460032001F003F007F
S113238A1F004E2F41000041542B4F52474C00412D
S113239A542B52455345540041542B524F4C453DFE
S11323AA310041542B494E49540041542B494E5152
S11323BA4D3D302C342C34002C004E2F4100415416
S11323CA2B494E5100317374206E616D653A2000B9
S11323DA327374206E616D653A2000337374206E13
S11323EA616D653A2000347374206E616D653A201C
S11323FA0041542B524E414D453F000D0045525267
S113240A4F52204E414D45003E00456E74657200A0
S113241A4261636B00557000446F776E00596F75A3
S113242A207069636B65643A00596F752064656C42
S113243A657465643A004C4F434B204155544F0030
S113244A4C4F434B204F4646004C4F434B204F4E74
S113245A00534541524348494E470057454C434F60
S113246A4D45004156414C49424C45204445564944
S113247A4345533A0052454D4F5645204445564923
S113248A43453A0041444420444556494345005291
S113249A454D4F56452044455649434500555044F9
S11324AA4154450000000000000000000000000044
S11324BA000000000000000000000000000000000E
S11324CA00000000000000000000000000000000FE
S11324DA00000000000000000000000000FFFF8070
S11324EAFFFF800000000000000000000000000060
S11324FA00000000000000000000000000000000CE
S113250A00000000000000000000000010000000AD
S113251A00100000000038000000007800000000ED
S113252A7C00000000FE00000000FE00000001FF25
S113253A00000003FF00000003FF80000007FF8083
S113254A000007FFC000000FFFE000000FFFE000DB
S113255A001FFFF000003FFFF0000037FFF8000003
S113256A67FFF8000063FFFC0000C1FFFC00018163
S113257AFFFE000180FFFF000300FFFF0003007F4E
S113258AFF8006007FFF800E003FFFC00C003FFF64
S113259AC018001FFFE01FFFFFFFE03FFFFFFFF02F
S11325AA70000FFFF8600007FFF8E00003FFFCC0AB
S11325BA0000000000000000FFFFF000FFFFFE0023
S11325CAFFFC0F80FFFC01C0FFFC00E0FFFC007071
S11325DAFFFC0030FFFC0038FFFC0018FFFC001869
S11325EAFFFC0018FFFC0018FFFC0018FFFC003079
S11325FAFFFC0030FFFC0060FFFC20E0FFFC3F8092
S113260AFFFC1F80FFFC00C0FFFC0060FFFC0030E1
S113261AFFFC0030FFFC0030FFFC0030FFFC003000
S113262AFFFC0060FFFC0060FFFC01C0FFFC0780A8
S113263AFFFFFF00FFFFF800000000000000000099
S113264AFFFFFFFFFFFFFFFF007FFE00007FFE008A
S113265A007FFE00007FFE00007FFE00007FFE0078
S113266A007FFE00007FFE00007FFE00007FFE0068
S113267A007FFE00007FFE00007FFE00007FFE0058
S113268A007FFE00007FFE00007FFE00007FFE0048
S113269A007FFE00007FFE00007FFE00007FFE0038
S11326AA007FFE00007FFE00007FFE00007FFE0028
S11326BA007FFE00007FFE00007FFE00007FFE0018
S11326CA000000000200000007001A000D00340098
S11326DA0D00680014009C000E00EA0002001E01AE
S11326EA060038010600520108006C010C0086013C
S11326FA0200BA010700D4010200EE010800080230
S113270A0D002202070056020D0070020D00A402F9
S113271A0E00D8020D000C030D0040030D007403D3
S113272A0D00A8030D00DC030200100402002A04B1
S113273A0C0044040C0078040C00AC040B00E00404
S113274A17001405120062050E00B0051000E40516
S113275A100018060E004C060D0080061100B4067F
S113276A10000207020036070B0050071000840706
S113277A0C00B8071200EC0710003A0811006E08A2
S113278A0E00BC081100F00810003E090E00720980
S113279A0E00A6091000DA0912000E0A19005C0AD2
S11327AA1200C40A1200120B0D00600B0500940BF0
S11327BA0800AE0B0500C80B0B00E20B0F00160C49
S11327CA05004A0C0C00640C0C00980C0C00CC0C90
S11327DA0C00000D0D00340D0800680D0C00820D6C
S11327EA0B00B60D0200EA0D0400040E0C001E0EC6
S11327FA0200520E12006C0E0B00BA0E0D00EE0E01
S113280A0C00220F0C00560F07008A0F0C00A40FAD
S113281A0700D80F0B00F20F0C00261014005A10F0
S113282A0D00A8100C00DC100C0010110800441153
S113283A02005E11080078110E0092110000C0C057
S113284AC0C0C0C0C0C0C0C0C0C0C0C00000C0C0FA
S113285AC000000000000000C6C6C6C6C6C6C60040
S113286A000000000000000000000000000000005A
S113287A00000000063006300C600C600C607FF823
S113288A7FF818C018C018C018C018C0FFF0FFF0AD
S113289A3180318031806300630000000000000051
S11328AA00000000020002000FC03FE07270C2384C
S11328BAC218C200E20072003F000FE002F00238C0
S11328CA0218C218C218623872703FE00F80020000
S11328DA02000000000000000000000000003E03A7
S11328EA007F0600E38600C18C00C18C00C19800F9
S11328FAC19800E3B0007F30003E67C000CFE0001B
S113290ADC70019830019830031830031830061C23
S113291A70060FE00C07C000000000000000000071
S113292A000000000000000000000F801FC038E013
S113293A30603060386019C01F801E003F00730C7D
S113294AE38CC1DCC0F8C078E07070F83FDC1F0883
S113295A000000000000000000000000C0C0C0C069
S113296AC0C0C00000000000000000000000000019
S113297A0000000000000C18183030606060C0C00D
S113298AC0C0C0C0C0C0606060303018180C0000FD
S113299AC0606030301818180C0C0C0C0C0C0C0CA1
S11329AA18181830306060C000001818DBFF183C93
S11329BA662400000000000000000000000000007F
S11329CA00000000000000000000000006000600ED
S11329DA060006000600FFF0FFF0060006000600E7
S11329EA06000600000000000000000000000000CD
S11329FA00000000000000000000000000000000C9
S1132A0A0000000000000000C0C0C0404040800038
S1132A1A00000000000000000000000000FEFE00AC
S1132A2A0000000000000000000000000000000098
S1132A3A000000000000000000000000C0C0C00048
S1132A4A00000000000003070606060C0C0C181808
S1132A5A18303030606060E0C00000000000000000
S1132A6A00000F803FE0306060306030C018C0184A
S1132A7AC018C018C018C018C018C018C0186030D0
S1132A8A603030603FE00F8000000000000000006A
S1132A9A0000000006060E1EFEF6060606060606D8
S1132AAA06060606060606000000000000000000EE
S1132ABA0FC03FE070706038C018C01800180038A2
S1132ACA0030006001C0038007001C003800700059
S1132ADA6000FFF8FFF8000000000000000000009A
S1132AEA000000001F803FE07060E030C03000301A
S1132AFA003000E007C007E0007000380018001832
S1132B0AC018E03870703FE01F8000000000000029
S1132B1A0000000000000000006000E000E001E0A6
S1132B2A0360066006600C601860186030606060BC
S1132B3AC060FFFCFFFC00600060006000600000F1
S1132B4A0000000000000000000000003FF03FF019
S1132B5A300030003000600067807FE078706030B9
S1132B6A0018001800180018C018E03070703FE010
S1132B7A1F800000000000000000000000000000A8
S1132B8A0FC01FE0387070186018E000C000CF80D2
S1132B9ADFE0F070C038C018C018C0186018603080
S1132BAA38701FE00F8000000000000000000000E1
S1132BBA00000000FFF8FFF8003800300030006021
S1132BCA006000C000C00180018003000300070008
S1132BDA060006000C000C001800000000000000AB
S1132BEA00000000000000000F803FE070706030B9
S1132BFA60306030707038E01FC01FC038E0603049
S1132C0AC018C018C018E03870703FE01FC0000038
S1132C1A0000000000000000000000000F803FC018
S1132C2A70E06030C030C018C018C018E01870785E
S1132C3A3FD80F9800180038C030C07070E03FC009
S1132C4A1F800000000000000000000000000000D7
S1132C5A000000C0C0C00000000000000000C0C0A6
S1132C6AC0000000000000000000000000C0C0C056
S1132C7A0000000000000000C0C0C04040408000C6
S1132C8A000000000000000000000010007003E0D3
S1132C9A0F803E00F800C000F8003E000F8003E0F9
S1132CAA0070001000000000000000000000000096
S1132CBA0000000000000000000000000000000006
S1132CCA0000FFF0FFF00000000000000000FFF029
S1132CDAFFF00000000000000000000000000000F7
S1132CEA00000000000000000000000000000000D6
S1132CFA00008000E0007C001F0007C001F00030E3
S1132D0A01F007C01F007C00E00080000000000002
S1132D1A00000000000000000000000000000000A5
S1132D2A1F003FC070C06060C060C060006000C027
S1132D3A0180070006000C000C000C0000000000D3
S1132D4A0C000C000C000000000000000000000051
S1132D5A000000000000007F0003FFC00780F00E9F
S1132D6A00381C0018387D8C70FF8C61C786638319
S1132D7A86C30306C70306C60306C60306C6060EAB
S1132D8AC6060CC60E1C631E3863F7F071E3C0381E
S1132D9A00001C00000F804003FFE000FF800000D9
S1132DAA0000000001C00001E0000360000370009D
S1132DBA0330000630000618000E18000C0C000C34
S1132DCA0C00180C001FFE001FFE00300300300325
S1132DDA00600380600180600180C000C0000000C0
S1132DEA00000000000000000000000000000000D5
S1132DFAFFC0FFF0C030C018C018C018C018C030D7
S1132E0AFFE0FFF0C038C01CC00CC00CC00CC01CD2
S1132E1AC038FFF0FFC000000000000000000000FE
S1132E2A0000000007F00FF83C1E30066003600340
S1132E3AC000C000C000C000C000C000C0006003E1
S1132E4A600330063C1E0FFC07F00000000000007F
S1132E5A0000000000000000FFC0FFF0C03CC00CEE
S1132E6AC006C006C003C003C003C003C003C00336
S1132E7AC003C006C006C00CC03CFFF0FFC000007F
S1132E8A000000000000000000000000FFFCFFFC3E
S1132E9AC000C000C000C000C000C000FFF8FFF8B6
S1132EAAC000C000C000C000C000C000C000FFFCD9
S1132EBAFFFC000000000000000000000000000009
S1132ECAFFF8FFF8C000C000C000C000C000C00086
S1132EDAFFF0FFF0C000C000C000C000C000C00086
S1132EEAC000C000C0000000000000000000000094
S1132EFA00000000000003F0000FFC001C0E00306C
S1132F0A0300600180600180C00000C00000C000AE
S1132F1A00C07F80C07F80C00180C00180600180C2
S1132F2A6001803003801C0F800FFD8003F980004C
S1132F3A0000000000000000000000000000000083
S1132F4A0000C003C003C003C003C003C003C0031E
S1132F5AC003FFFFFFFFC003C003C003C003C003D5
S1132F6AC003C003C003C003000000000000000047
S1132F7A00000000C0C0C0C0C0C0C0C0C0C0C0C043
S1132F8AC0C0C0C0C0C0C0000000000000000000F3
S1132F9A0060006000600060006000600060006023
S1132FAA00600060006000600060C060C060E060B3
S1132FBA60C07FC01F000000000000000000000085
S1132FCA00000000C00CC018C030C060C0C0C1807E
S1132FDAC300C600CF00DB80F180E0C0C060C070CF
S1132FEAC038C018C00CC006C007000000000000AA
S1132FFA0000000000000000C000C000C000C000C3
S113300AC000C000C000C000C000C000C000C000B2
S113301AC000C000C000C000C000FFF0FFF0000004
S113302A0000000000000000000000000000F0039F
S113303AC0F003C0F003C0D806C0D806C0D806C082
S113304ACC0CC0CC0CC0CC0CC0C618C0C618C0C6A8
S113305A18C0C330C0C330C0C330C0C1E0C0C1E06F
S113306AC0C1E0C0C0C0C0000000000000000000F1
S113307A00000000000000000000E003E003F00389
S113308AD803D803CC03C603C703C303C183C0C38D
S113309AC0E3C063C033C01BC01BC00FC007C00756
S11330AA0000000000000000000000000000000012
S11330BA03F0000FF8003C1E0030060060030060B5
S11330CA0300C00180C00180C00180C00180C0012A
S11330DA80C00180C00180600300600300300600E4
S11330EA3C1E000FF80003F000000000000000007E
S11330FA000000000000000000000000FFE0FFF8EC
S113310AC038C01CC00CC00CC00CC01CC038FFF0B6
S113311AFFC0C000C000C000C000C000C000C000A2
S113312AC0000000000000000000000000000000D1
S113313A000003F0000FF8003C1E00300600600394
S113314A00600300C00180C00180C00180C001800A
S113315AC00180C00180C003806023006077003012
S113316A3E003C1E000FFF0007E380000100000040
S113317A0000000000000000000000000000FFF052
S113318AFFFCC01CC00EC006C006C006C006C01C98
S113319AFFF8FFE0C038C018C00CC00CC006C00657
S11331AAC006C00300000000000000000000000088
S11331BA00000FC01FF038386018600C600C7000F3
S11331CA3C001FC00FF000F8001CC00CC00CE00C3F
S11331DA601C78383FF00FC00000000000000000B7
S11331EA000000000000FFFCFFFC030003000300D2
S11331FA03000300030003000300030003000300A9
S113320A030003000300030003000300000000009E
S113321A00000000000000000000C003C003C00357
S113322AC003C003C003C003C003C003C003C00378
S113323AC003C003C003E0076006781E3FFC0FF01A
S113324A0000000000000000000000000000000070
S113325AC000C060018060018070038030030030C8
S113326A03001806001806001C0E000C0C000C0CB7
S113327A000618000618000738000330000330005F
S113328A01E00001E00001E000000000000000008D
S113329A0000000000000000000000000000000020
S11332AAC01C0180C01C0180603603006036030024
S11332BA60360300303606003063060030630600C9
S11332CA3063060018C18C0018C18C0018C18C0028
S11332DA0D80D8000D80D8000D80D8000D80D8004C
S11332EA070070000700700007007000000000006B
S11332FA00000000000000000000000000000000C0
S113330A0000000000007003803003001806000C5F
S113331A0C0006180006180003300001E00000C083
S113332A0001C00001E0000330000618000C0C0084
S113333A0C0C00180600300300600180E001C00094
S113334A000000000000000000000000000000006F
S113335A00000000C000C0600180700380300300D8
S113336A1806000C0C0006180006180003300001A9
S113337AE00000C00000C00000C00000C00000C09F
S113338A0000C00000C00000C00000C0000000002F
S113339A000000000000000000000000000000001F
S11333AA7FF87FF800380030006000E000C0018038
S11333BA0300070006000C00180038003000600003
S11333CAE000FFF8FFF80000000000000000000021
S11333DA0000F8F8C0C0C0C0C0C0C0C0C0C0C0C0EF
S11333EAC0C0C0C0C0C0C0C0F8F80000C0E060607F
S11333FA603030301818180C0C0C06060607030047
S113340A000000000000F8F81818181818181818FE
S113341A181818181818181818181818F8F800008E
S113342A00000E000E001B001B00318071C060C03A
S113343AC06000000000000000000000000000005E
S113344A000000000000000000000000000000006E
S113345A000000000000000000000000000000005E
S113346A000000000000000000000000000000004E
S113347A000000000000000000000000000000003E
S113348A0000FFFE000000E0703018000000000099
S113349A000000000000000000000000000000001E
S11334AA00000000000000000000000000001F806F
S11334BA7FE0E070C03000300FF03FF07030C03071
S11334CAC030C030E0F07FF03F3000000000000060
S11334DA0000000000000000C000C000C000C000DE
S11334EAC000CF80FFC0F0E0E060C030C030C03020
S11334FAC030C030C030C060F0E0FFC0DF00000060
S113350A00000000000000000000000000000000AD
S113351A0000000000000F803FC070606030C030BF
S113352AC000C000C000C000C030603070603FC03E
S113353A0F800000000000000000000000000000EE
S113354A003000300030003000300FB03FF070F02F
S113355A6030C030C030C030C030C030C03060705D
S113356A70F03FF01F30000000000000000000006F
S113357A00000000000000000000000000000F80AE
S113358A3FE070706030C018C018FFF8FFF8C00040
S113359AC018601870703FE00FC0000000000000FF
S11335AA0000000000000F1F383030FEFE303030BB
S11335BA303030303030303030000000000000004D
S11335CA0000000000000000000000000FB03FF0FF
S11335DA70F06030C030C030C030C030C030C0304D
S11335EA607070F03FF01F300030C070E0E07FC0C0
S11335FA1F8000000000C000C000C000C000C0005E
S113360ACF80DFC0F0E0E060C060C060C060C0602E
S113361AC060C060C060C060C060C06000000000DC
S113362A0000000000000000C0C0000000C0C0C0CC
S113363AC0C0C0C0C0C0C0C0C0C0C000000000003C
S113364A000030300000003030303030303030305C
S113365A3030303030303030F0E000000000C0004C
S113366AC000C000C000C000C0C0C180C300C60002
S113367ACC00D800FC00E600C700C380C180C0C0EB
S113368AC060C070000000000000000000000000DC
S113369AC0C0C0C0C0C0C0C0C0C0C0C0C0C0C0C01C
S11336AAC0C0C000000000000000000000000000CC
S11336BA00000000000000000000000000CF0F001E
S11336CADF9F80F1F1C0E0E0C0C0C0C0C0C0C0C08C
S11336DAC0C0C0C0C0C0C0C0C0C0C0C0C0C0C0C0DC
S11336EAC0C0C0C0C0C0C00000000000000000008C
S11336FA00000000000000000000000000000000BC
S113370A00000000CF80DFC0F0E0E060C060C0606D
S113371AC060C060C060C060C060C060C060C0609B
S113372A000000000000000000000000000000008B
S113373A00000000000000000F803FE0707060305D
S113374AC018C018C018C018C018C01860307070EB
S113375A3FE00F80000000000000000000000000AD
S113376A000000000000000000000000CF80FFC03D
S113377AF0E0E060C030C030C030C030C030C0308B
S113378AC060F0E0FFC0DF00C000C000C000C0009D
S113379AC00000000000000000000000000000005B
S11337AA0FB03FF070F06030C030C030C030C0306D
S11337BAC030C030607070F03FF01F30003000300D
S11337CA00300030003000000000000000CEFEF09F
S11337DAC0C0C0C0C0C0C0C0C0C0C000000000009B
S11337EA00000000000000000000000000001F802C
S11337FA7FE0E070C030C000F8007F800FE0007006
S113380AC030C03060707FE01F80000000000000FC
S113381A0000000000000000303030FEFE3030307E
S113382A303030303030303E1E00000000000000DE
S113383A000000000000000000000000C060C0603A
S113384AC060C060C060C060C060C060C060C0606A
S113385AC0E0E1E07F603E6000000000000000007C
S113386A000000000000000000000000000000004A
S113387AC03060606060606030C030C030C01980A1
S113388A198019800F000F000F00060000000000C5
S113389A000000000000000000000000000000001A
S11338AA0000000000000000000000C06030E0607A
S11338BA7060F06060F06060F0603198C03198C068
S11338CA3198C01B0D801B0D801B0D800E07000E46
S11338DA07000E07000000000000000000000000BE
S11338EA00000000000000000000000000000000CA
S11338FA0000E0386030306018C018C00D8007003E
S113390A07000D8018C018C030606030E03800002D
S113391A0000000000000000000000000000000099
S113392A000000000000C03060606060606030C069
S113393A30C030C01980198019800F000F000F00A1
S113394A060006000C001C0078007000000000004D
S113395A000000000000000000007FF07FF000700B
S113396A00E001C0038007000E001C00380070004C
S113397AE000FFF0FFF0000000000000000000007B
S113398A0000070F1C1818181818181830E0E0302F
S113399A181818181818181C0F070000C0C0C0C03F
S11339AAC0C0C0C0C0C0C0C0C0C0C0C0C0C0C0C009
S11339BAC0C0C0C00000E0F0381818181818181849
S11339CA0C07070C1818181818181838F0E0000013
S11339DA00007C04FF0CC3FC80F800000000000017
S11339EA00000000000000000000000000000000C9
S11339FA00000000000000000000000000000000B9
S1053A0A0000B6
S9030000FC
